:200000000C94F3000C941B010C941B010C94232F0C944D2F0C94772F0C941B010C941B0109
:200020000C941B010C941B010C941B010C941B010C941B010C941B010C941B010C941B01E0
:200040000C9439320C941B010C941B010C941B010C941B010C941B010C941B010C941B0171
:200060000C94F72C0C941B0107634236B79BD8A71A39685618AEBAAB558C1D3CB7CC57639B
:20008000BD6DEDFD753EF6177231BF000000803F08000000BE922449123EABAAAA2ABECDA2
:2000A000CCCC4C3E00000080BEABAAAAAA3E00000000BF000000803F0000000000084178BA
:2000C000D3BB4387D1133D190E3CC3BD4282AD2B3E68EC8276BED98FE1A93E4C80EFFFBE38
:2000E00001C4FF7F3F000000000000C201000100110011000C0000E100000A002500250057
:200100002100009600001900390039003600127A00001F00460046004400807000002200DA
:200120004D004D004A00004B00003600750075007200403800004A009C009C0099008025C6
:2001400000007200EC00EC00E900C0120000E900DA01DA01D70160090000D701B603B60370
:20016000B303B0040000B3036E076E076B07580200006E07DC0EDC0ED80E2C010000DC0E63
:20018000C11DC11DBE1D00000000240027002A0000000000250028002B00000000002300B8
:2001A0002600290004040404040404040202020202020303030303030102040810204080B3
:2001C00001020408102001020408102000000007000201000003040600000000000000008A
:2001E0003602932B2F0211241FBECFEFD8E0DEBFCDBF11E0A0E0B1E0EAE7F2E702C0059024
:200200000D92A835B107D9F716E0A8E5B1E001C01D92AD32B107E1F711E0C4EED1E004C0CF
:200220002297FE010E94F538C03ED107C9F70E942C340C9430390C940000A0E0B0E0E3E221
:20024000F1E00C940139EC01A880B980CA80DB80A114B104C104D10441F484E2A82E89ED15
:20026000B82E8BE5C82E87E0D82EC601B5012DE133EF41E050E00E94D83827EA31E440E0CF
:2002800050E00E9464387B018C01C601B5012DE133EF41E050E00E94D838CA01B9012CEE98
:2002A00034EF4FEF5FEF0E9464386E0D7F1D801F911F97FF04C061507040804090486883AD
:2002C00079838A839B839B01AC015F77B901CA01CDB7DEB7EAE00C941D390E941D0108951D
:2002E00080E091E00E941D0108956093000170930101809302019093030108958091BD012E
:200300008823D9F11092BD0110921C0510921D0510920202109201028091140590911505D1
:20032000A0911605B09117054E97A109B1098093140590931505A0931605B093170521E0B4
:200340002093F9018091E2018093E3015F9A8091100590911105A0911205B09113058093FB
:20036000180590931905A0931A05B0931B0520930502809103028093040280911D018130A1
:20038000E1F420910E0530910F05442737FD4095542F8091100590911105A0911205B09112
:2003A0001305821B930BA40BB50B8093140590931505A0931605B09317050895882319F410
:2003C00085B1897132C0813029F485B1897185B9299A0895823029F485B1897185B92A9A5E
:2003E0000895833031F485B1897185B985B186601CC0843029F485B1897185B92D9A08957F
:20040000853031F485B1897185B985B182620DC0863031F485B1897185B985B1846205C083
:2004200085B1897185B985B1866285B908958130910559F46F5F7F4F89F48FE691E060E181
:200440004EE020E00E940B320895892B39F46F5F7F4F21F48FE691E00E949330089580E018
:2004600090E06FEF7FEF0E941702089581E090E06FEF7FEF0E94170208952F923F924F9280
:200480005F926F927F928F929F92AF92BF92CF92DF92EF92FF920F931F93DF93CF93CDB7E5
:2004A000DEB72D970FB6F894DEBF0FBECDBF1B012C012A833B834C835D83EE82FF820887B9
:2004C00019876AA07BA08CA09DA0EEA0FFA008A519A5C801B70120E030E040E251E40E94CC
:2004E000963618165CF40F2EF0E0EF2EF0E0FF2EF0E20F2FF1E41F2FF02D14C0C801B701E6
:2005000020E030E040E251EC0E944735882354F40F2EF0E0EF2EF0E0FF2EF0E20F2FF1EC47
:200520001F2FF02DC401B301A20191010E944735882314F442013101C401B3012A813B817C
:200540004C815D810E949636181624F46A807B808C809D80C601B5012E813F814885598597
:200560000E949636181664F4C601B5012E813F81488559850E94E2345B016C0119820CC008
:200580006E817F8188859985A60195010E94E2345B016C0121E02983C201B1012A813B81FA
:2005A0004C815D810E94963618162CF4E0E070E080E060E05EC0C801B7012DEC3CEC4CEC0C
:2005C0005DEB0E949A369B01AC0160E070E080E291E40E94FD366A877B878C879D87C401ED
:2005E000B301A20191010E94E2347B018C016A817B818C819D81A20191010E94E2349B01B6
:20060000AC01C801B7010E944B3529812223B9F4EA85FB85AC85BD859F01AD010E94FD3669
:200620009B01AC01CA01B901A60195010E949A362E813F81488559850E94E33418C0EA8523
:20064000FB85AC85BD859F01AD010E94FD369B01AC01CA01B901A60195010E949A369B016B
:20066000AC016E817F81888599850E94E234E62F692F2E2F372F482F562FB901CA012D9647
:200680000FB6F894DEBF0FBECDBFCF91DF911F910F91FF90EF90DF90CF90BF90AF909F905A
:2006A0008F907F906F905F904F903F902F9008954F925F926F927F928F929F92AF92BF924C
:2006C000CF92DF92EF92FF920F931F93CF93DF938091A701833009F4B0C0C0915B01D09127
:2006E0005C012091A3013091A401C217D3070CF045C08DB79EB708970FB6F8949EBF0FBE7B
:200700008DBF4DB65EB60894411C511C21503040B901882777FD8095982F0E94E6353B017D
:200720004C0160916E0170E080E090E00E94E4357B018C0160916D0170E080E090E00E9407
:20074000E4355B016C01BE01882777FD8095982F0E94E635F201608371838283938383E3F1
:2007600093E3A3EBBFE384839583A683B78360E070E080E090E0A40193014FC02091A50152
:200780003091A60110916D01C217D3072CF410930E0510920F0551C0EDB7FEB738970FB6A5
:2007A000F894FEBF0FBEEDBF4DB65EB60894411C511CB901882777FD8095982F0E94E63584
:2007C0003B014C01612F70E080E090E00E94E4357B018C0160916C0170E080E090E00E94FC
:2007E000E4355B016C01BE01882777FD8095982F0E94E635F20160837183828393838AE944
:2008000099E9A9EDBFE384839583A683B783C401B30120E030EC4FE754E40E943D020E9416
:20082000B33570930F0560930E058DB79EB708960FB6F8949EBF0FBE8DBFDF91CF911F9135
:200840000F91FF90EF90DF90CF90BF90AF909F908F907F906F905F904F9008950F931F9373
:20086000CF93DF93182F8CE061E00E9445338BE061E00E9445338BE060E00E9484338CE060
:2008800060E00E948433C7E0D0E0012F10E08CE060E00E948433B8010C2E02C07595679588
:2008A0000A94E2F761708BE00E9484338CE061E00E9484338BE060E00E94843321978FEFEC
:2008C000CF3FD80721F78CE060E00E948433DF91CF911F910F9108951F93982F162F2898D3
:2008E0008091E501853051F48091B601882319F08AEA8093B6018091B60102C08FE38927A1
:200900000E942E0480916501882319F0809162010DC080918C01882311F080E007C0809115
:20092000BD01882311F081E101C0812F0E942E04289A1F9108959091EB01913009F0B9C057
:200940008091FD018823B9F4489B37C05B989093FD0182E08093EF018091E101882369F5E1
:20096000809120018C7F8160809320016091DF010E946C0422C0E0911D0520911C05489B18
:200980000EC0F0E0E85FFD4F81E090E002C0880F991F2A95E2F72081282B20830EC0F0E077
:2009A000E85FFD4F81E090E002C0880F991F2A95E2F780952081822380838091FE01882311
:2009C000C1F4499B38C05C9881E08093FE0182E08093EF018091E101882369F5809120018C
:2009E000837F8460809320016091DF010E946C0422C0E0911D0520911C05499B0EC0F0E031
:200A0000E65FFC4F81E090E002C0880F991F2A95E2F72081282B20830EC0F0E0E65FFC4F07
:200A200081E090E002C0880F991F2A95E2F780952081822380838091FF018823C1F44A9B88
:200A400038C05D9881E08093FF0182E08093EF018091E101882369F5809120018F7C8061B6
:200A6000809320016091DF010E946C040895E0911D0520911C054A9B0EC0F0E0E45FFB4F4D
:200A800081E090E002C0880F991F2A95E2F72081282B20830895F0E0E45FFB4F81E090E07A
:200AA00002C0880F991F2A95E2F780952081822380830895982F8F3018F48AE261E060C033
:200AC0008F508F3018F48AE263E05AC0892F8E518F3018F48AE267E053C0892F8D528F3025
:200AE00018F48AE26FE04CC0892F8C538F3018F48AE26FE145C0892F8B548F3018F48AE232
:200B00006FE33EC0892F8A558F3018F48AE26FE737C0892F89568F3018F48AE26FEF30C04E
:200B2000892F88578F3018F48AE26EEF29C0892F87588F3018F48AE26CEF22C0892F8659FF
:200B40008F3018F48AE268EF1BC0892F855A8F3018F48AE260EF14C0892F845B8F3018F4D9
:200B60008AE260EE0DC0892F835C8F3018F48AE260EC06C0892F825D8F3028F48AE260E8E8
:200B80000E946C040895915E9F3020F48AE260E00E946C040895CF93DF93EB01813009F00F
:200BA0006DC01092E40180911E0590E06817790709F482C0CB0160E170E00E94A338CB01F9
:200BC00022E030E062E070E00E94A338281B390B220F331F3091E6013F5FCE0160E270E043
:200BE0000E94A338360FCE01622F70E00E94A3382695622F70E00E94A338361BB9F1313091
:200C000021F48091200161E034C0323021F48091200163E02EC0333021F48091200167E08D
:200C200028C0343021F4809120016FE022C0353021F4809120016FE11CC0363021F480918C
:200C400020016FE316C0373021F4809120016FE710C0383049F4809120016FEF0E946C0430
:200C600081E08093E60107C0393029F48091200160E00E946C04C0931E051EC08230E1F46D
:200C800080911D018130C1F48091E40163E00E948338E82FF0E0EA5DFE4F60816093DF01FA
:200CA0008091E001681741F0809120010E946C048091DF018093E001DF91CF9108958091EB
:200CC0001401882321F082E08093200102C01092200180911501882329F080912001886023
:200CE0008093200180911601882329F0809120018062809320018091F001823029F48091AA
:200D00002001806480932001809120016091DF010E946C0408951092C6011092C701109273
:200D2000C80191E09093DE018091BD01882309F44CC09093E40181E18093DF018091200165
:200D400061E10E946C0490E08091BD01882309F491E09093BD0110921C0510921D051092DD
:200D60000202109201028091140590911505A0911605B09117054E97A109B1098093140547
:200D800090931505A0931605B093170521E02093F9018091E2018093E3015F985F9A8091CF
:200DA000100590911105A0911205B09113058093180590931905A0931A05B0931B0520936D
:200DC0000502809103028093040280911D018130E1F420910E0530910F05442737FD40951B
:200DE000542F8091100590911105A0911205B0911305821B930BA40BB50B80931405909379
:200E00001505A0931605B093170580911B01282F81FF1AC0E0911D05F0E0E85FFD4F808136
:200E200090E000901C0502C0959587950A94E2F780FF04C088E08093AC0102C01092AC0196
:200E400080911401882311F41092AC0122FF19C0809115018823A9F0E0911D05F0E0E65F60
:200E6000FC4F808190E000901C0502C0959587950A94E2F780FF05C08091AC018061809390
:200E8000AC0123FF19C0809116018823A9F0E0911D05F0E0E45FFB4F808190E000901C052C
:200EA00002C0959587950A94E2F780FF05C08091AC0180628093AC01089580916501882350
:200EC00011F0109265011092660180910E0590910F05AA2797FDA095BA2F2091100530919D
:200EE00011054091120550911305281B390B4A0B5B0B2093E7013093E8014093E9015093D2
:200F0000EA01209314053093150540931605509317058091FA01833019F482E08093FA0114
:200F200091E090931D019093080190936A0188E08093B4019093AB010E948B0608951F93C4
:200F4000162F28980E942E04812F0E942E04289A1F910895682F8FE691E00E9467340895CE
:200F6000CF93DF93EC018091B501813011F41092B5018091E501853019F484E08093E501C5
:200F80008091E5018823C1F41092E7011092E8011092E9011092EA01109214051092150555
:200FA000109216051092170510921C0510921D05109202021092010281E08093EC012091D2
:200FC00010053091110540911205509113052C523140404050402093F5013093F60140930F
:200FE000F7015093F8018093EE018091EF018F5F8093EF01823048F08091A701813019F4C8
:2010000084E00E94AA071092EF012091EF012130A1F48091E501823080F0809110059091A0
:201020001105A0911205B09113058093F1019093F201A093F301B093F4018091FA018130C2
:2010400079F4D0931F01C0931E0110921C0510921D05109202021092010282E08093FA01EC
:20106000222389F51092EB011092FD011092FE011092FF0181E08093FB019091E501992309
:2010800029F410921C0510921D051DC09130D9F48AE280931C018093D40190931401909362
:2010A0001501909316019093AB011092B4011092B3011092B20182E08093E5018091E201C0
:2010C00081508093E3010E945F06DF91CF9108958BE00E94AA0784E00E94AA0780E00E945D
:2010E000AA0788E00E94AA0708951F93182F8091EF01813009F06FC0209110053091110577
:2011000040911205509113058091F5019091F601A091F701B091F801281B390B4A0B5B0B2A
:2011200080910A0190910B01AA2797FDA095BA2F281739074A075B0798F00E9481326093E1
:20114000F5017093F6018093F7019093F8018091EE018F5F8093EE01823010F01092EE0145
:201160008091EE018130E1F4909120019F77909320018091E501882311F0853061F480918F
:20118000A701833011F410920601892F8074809320018093B60180912001612F0E946C04C8
:2011A0008091EE01882321F5809120018068809320019091E501992311F0953031F480747E
:2011C0008569809320018093B60180912001612F0E946C040DC0823059F480912001806869
:2011E00080932001612F0E946C0483E08093EF011F91089582E00E94DE0184E10E94233326
:2012000090935C0180935B0108951F931092BD0121E020938B018BE08093B4012093AB015E
:2012200010928C012093140120931501209316018BB1877C8BB98BB18BB920931D0180913F
:20124000E501853041F48FEF9FE090931F0180931E012093B50180912001807485698093BC
:2012600020011092DF0160E00E946C0411E01093E50182E08093EF011093FA010E94FA0858
:201280001092D7018091100590911105A0911205B09113058093140590931505A09316051F
:2012A000B09317058093E7019093E801A093E901B093EA011092E6011093EB011093FD01C4
:2012C0001093FE011093FF015F9810921D0510921C0510920202109201021F9108950F9311
:2012E0001F938091EF01882329F08091A701882309F089C082E00E94DE010091DC011091DF
:20130000DD0184E10E942333081B190B101611066CF40091DC011091DD0184E10E94233364
:20132000081B190B0A301105E4F00BC084E10E9423332091DC013091DD01821B930B0A9711
:2013400084F08091100590911105A0911205B09113058093D8019093D901A093DA01B093E1
:20136000DB018091100590911105A0911205B09113052091D8013091D9014091DA015091E1
:20138000DB01821B930BA40BB50B85369105A105B105C8F584E10E94233390935C0180936D
:2013A0005B019093DD018093DC018091A701833011F00E9458038091A701813021F5209145
:2013C0001E0130911F0180910401909105018217930784F080915E01882361F080910E0599
:2013E00090910F050C9734F48CE090E090930F0580930E058091EF01823028F480910E05C1
:20140000865C0E94AA071F910F910895EF92FF920F931F9380910102909102028770907014
:20142000892B71F48091A701833051F08091E501882331F080916501882311F40E946F09E2
:2014400080918B01813051F480916701813031F488E090E090930F0580930E0580911D0146
:201460008130B1F48091100590911105A0911205B09113058093E7019093E801A093E901F4
:20148000B093EA011092C6011092C7011092C801E0901405F0901505009116051091170554
:2014A00080910E0590910F059C01442737FD4095542F8091E7019091E801A091E901B091E0
:2014C000EA018E199F09A00BB10B82179307A407B50708F48EC02E0D3F1D401F511F20936E
:2014E000140530931505409316055093170520910102309102022F5F3F4F309302022093FA
:2015000001028091A701813051F480911E0190911F012817390719F480E00E94AA07809158
:20152000A701833081F420911E0130911F0180910102909102022817390724F53093020292
:20154000209301021FC08130E9F42091010230910202C9018F739070892BA1F480911E01AA
:2015600090911F01855F91406CF08091EF01882349F4C90160E470E00E94A338862F8054CC
:201580000E94AA078091010280FD33C080911C058F5F80931C05883060F110921C05409183
:2015A0001D054F5F40931D058091A701813009F58091EF018823E9F420911E0130911F01C4
:2015C00080910401909105012817390794F0842F90E083709070892B61F480910E05909167
:2015E0000F050B9734F046954695842F80580E94AA0720911E0130911F0180910102909197
:2016000002022817390761F510921C0510921D05109202021092010280910E0590910F05C6
:20162000AA2797FDA095BA2F2091E7013091E8014091E9015091EA01281B390B4A0B5B0B1B
:20164000209314053093150540931605509317058091E501813021F48FEF9FE00E94B007E1
:201660001F910F91FF90EF900895AF92BF92CF92DF92EF92FF920F931F9383E00E94DE01C1
:2016800084E10E9423339093CA018093C90184E00E94DE010091C9011091CA0184E10E946F
:2016A0002333800F911F9093CA018093C9018050944034F08FEF93E09093CA018093C90146
:2016C0006091C9017091CA017093CC016093CB018DB79EB708970FB6F8949EBF0FBE8DBFF5
:2016E0000DB71EB70F5F1F4F882777FD8095982F0E94E635F801608371838283938380E06E
:2017000090E0A0E0B0E484839583A683B78360E070E080E090E020E030EC4FE754E40F2E9C
:20172000F0E0EF2EF0E0FF2EF8EC0F2FF2E41F2FF02D0F2EF0E0AF2EF0E0BF2EF0ECCF2EDC
:20174000F0E4DF2EF02D0E943D020E94B3357093D3016093D20181E08093C5012DB73EB770
:20176000285F3F4F0FB6F8943EBF0FBE2DBF0E94FA088091A701813041F50E9458038091FB
:20178000A7018130D9F420911E0130911F0180910401909105018217930784F080915E011E
:2017A000882361F080910E0590910F050C9734F48CE090E090930F0580930E0584E10E94C9
:2017C00023339093DD018093DC0180E00E94DE0184E10E942333909307028093060281E0DC
:2017E0000E94DE01009106021091070284E10E942333080F191F17FF03C020E030E019C0B7
:20180000009106021091070284E10E942333080F191F005014401CF02FEF33E00AC000919D
:2018200006021091070284E10E9423339C01200F311F309307022093060281E022373807FD
:201840000CF04AC0EDB7FEB738970FB6F894FEBF0FBEEDBF0DB71EB70F5F1F4FB9018827F5
:2018600077FD8095982F0E94E635F801608371838283938380E090E0A0E2B0E4848395836B
:20188000A683B78360E070E080E090E020E030E04AEA53E47B018C010F2EF0E0AF2EF0E047
:2018A000BF2EF0EECF2EF0E4DF2EF02D0E943D020E94B33570932201609321012DB73EB7E3
:2018C000285F3F4F0FB6F8943EBF0FBE2DBF683071050CF465C006C0C901825791408338C4
:2018E000910518F487E090E057C081E0253F38070CF456C0EDB7FEB738970FB6F894FEBF08
:201900000FBEEDBF0DB71EB70F5F1F4FB901882777FD8095982F0E94E635F8016083718393
:201920008283938380E090E0A0E4B0E484839583A683B78360E070E88AEF93E420E030E08A
:2019400048E454E40F2EF0E0EF2EF0E0FF2EF0E00F2FF1E41F2FF02D0F2EF0E0AF2EF0E0F4
:20196000BF2EF0E3CF2EF1E4DF2EF02D0E943D020E94B33570932201609321012DB73EB72C
:20198000285F3F4F0FB6F8943EBF0FBE2DBF6C30710534F08BE090E090932201809321019F
:2019A0001F910F91FF90EF90DF90CF90BF90AF900895AF92BF92CF92DF92EF92FF920F93B8
:2019C0001F9380E00E94DE0184E10E942333909307028093060281E00E94DE010091060255
:2019E0001091070284E10E942333800F911F90930702809306028050944034F08FEF93E0A1
:201A0000909307028093060220910602309107028091190190911A01A901481B590BCA0159
:201A200057FF03C0909581959F4F4E9714F01092C5018091C501882309F0B3C051E022379B
:201A400035070CF04AC08DB79EB708970FB6F8949EBF0FBE8DBF0DB71EB70F5F1F4FB90116
:201A6000882777FD8095982F0E94E635F801608371838283938380E090E0A0E2B0E48483D2
:201A80009583A683B78360E070E080E090E020E030E04AEA53E47B018C010F2EF0E0AF2EFD
:201AA000F0E0BF2EF0EECF2EF0E4DF2EF02D0E943D020E94B33570932201609321012DB706
:201AC0003EB7285F3F4F0FB6F8943EBF0FBE2DBF683071050CF465C006C0C9018257914088
:201AE0008338910518F487E090E057C041E0253F34070CF456C08DB79EB708970FB6F8943C
:201B00009EBF0FBE8DBF0DB71EB70F5F1F4FB901882777FD8095982F0E94E635F801608388
:201B200071838283938380E090E0A0E4B0E484839583A683B78360E070E88AEF93E420E0A4
:201B400030E048E454E40F2EF0E0EF2EF0E0FF2EF0E00F2FF1E41F2FF02D0F2EF0E0AF2EB2
:201B6000F0E0BF2EF0E3CF2EF1E4DF2EF02D0E943D020E94B33570932201609321012DB74F
:201B80003EB7285F3F4F0FB6F8943EBF0FBE2DBF6C30710534F08BE090E0909322018093CA
:201BA0002101209121013091220180912301909124012817390709F456C0309324012093A4
:201BC0002301809106029091070290931A018093190181E08093C5012115310511F481EC1B
:201BE00036C02130310511F480E631C02230310511F480E42CC02330310511F480E327C057
:201C00002430310511F480E222C02530310511F488E11DC02630310511F480E118C02730FA
:201C2000310511F48CE013C02830310511F488E00EC02930310511F486E009C02A3031050E
:201C400011F484E004C02B30310519F483E08093D6016091D6018091E20190E070E00E944E
:201C60008F386093E3011F910F91FF90EF90DF90CF90BF90AF900895AF92BF92CF92DF920B
:201C8000EF92FF920F931F938091E501823008F4C1C020911E0130911F01809101029091D2
:201CA00002022817390734F4109202021092010210921D0500D000D06091010270910202D1
:201CC000882777FD8095982F79010027F7FC0095102F20EC30E040E050E0EDB7FEB7218334
:201CE00032834383548320E030E040E050E0AA24BB2465010E946F346093E201669566950E
:201D00006093E4010F900F900F900F900E94D90C6091D6018091E20190E070E00E948F3803
:201D20006093E2018091E301861711F16093E30180911D01813029F480916501882309F446
:201D40005F9A8091100590911105A0911205B09113058093180590931905A0931A05B09386
:201D60001B0581E08093050280910302809304028091010290910202892B29F58091C101BB
:201D8000882319F56093E30180911D01813009F45F9A8091100590911105A0911205B091F7
:201DA00013058093180590931905A0931A05B0931B0591E09093050280910302809304021B
:201DC0009093C10102C01092C10180910502813009F52091100530911105409112055091CB
:201DE00013058091180590911905A0911A05B0911B05281B390B4A0B5B0B80915A0190E08F
:201E0000A0E0B0E0281739074A075B0718F05F98109205021F910F91FF90EF90DF90CF90AC
:201E2000BF90AF900895CF93DF93C0E0D0E081E0BE010E94CB0568E070E080E090E00E94B7
:201E40008F32219681E0C230D80789F7DF91CF9108958091A7018130B9F40E94680887E05B
:201E60000E94AA0764E670E080E090E00E948F3286E00E94AA076AE070E080E090E00E947D
:201E80008F3288E00E94AA0780916001909161019093AA018093A90110929E011092EF0173
:201EA0000E94813220910E0530910F05442737FD4095542F621B730B840B950B6093140507
:201EC00070931505809316059093170581E08093DE011092EC0183E08093E5011092F001A7
:201EE0000E945F0610921C0510921D0510920202109201028091140590911505A091160558
:201F0000B09117054E97A109B1098093140590931505A0931605B09317058CE291E0909303
:201F20000B0180930A011092C2010895EF92FF920F931F9384E10E94233320911701309128
:201F40001801821793070CF07EC080910901882371F410928E0180918D018F7380932001CA
:201F60006091DF010E946C0481E08093090110929B0110929C0110929D018091EF01823090
:201F800008F061C08FE00E9423332091CD0102E08130900704F121602093CD01815293407B
:201FA000ECF080916601882381F080910E05865C0E94AA076AE070E080E090E00E948F328B
:201FC00086E00E94AA07109266018091CD0188608093CD0103C0267F2093CD018091A701F5
:201FE0008330D9F080E10E942333AC0122E08130920774F02091CD01822F82608093CD01BC
:20200000415253400CF46CC322612093CD0168C38091CD018D7E8093CD0181E10E94233317
:20202000AC012091CD0162E0813096074CF0822F84608093CD01415253402CF0246201C0A9
:202040002B7D2093CD018091E501882309F46EC18091A701833009F4DFC08091CD01982FDB
:2020600080FF59C08091F001882311F093FD53C08091DE01882309F04EC080911D018F5FB8
:2020800080931D01823010F010921D0188E08093B40181E08093AB010E948B0680911D01EB
:2020A000882381F48091140590911505A0911605B09117058093E7019093E801A093E901CE
:2020C000B093EA018091A701813029F580911D01813049F480910E05865C0E94AA0786E06E
:2020E0000E94AA0718C08091E40163E00E948338805E0E94AA078091E7019091E801A091BA
:20210000E901B091EA018093140590931505A0931605B09317058091CD01982F81FF8AC023
:202120008091F001882311F094FD84C08091F901882309F07FC080911D019091A701813085
:2021400009F057C0913019F488E00E94AA0710921C0510921D051092020210920102809103
:20216000140590911505A0911605B09117054E97A109B1098093140590931505A093160562
:20218000B093170591E09093F9018091E2018093E3015F9A209110053091110540911205E9
:2021A00050911305209318053093190540931A0550931B0590930502809103028093040227
:2021C00080911D018130B1F580910E0590910F05AA2797FDA095BA2F281B390B4A0B5B0B5B
:2021E0002093140530931505409316055093170521C0913019F48AE00E94AA0781E0809369
:20220000BD018093F90181E18093DF018091200161E10E946C040EC080916A01882351F0E2
:202220000E948B0690E080916A01882309F491E090936A018091CD01982F82FF77C0809169
:20224000F001882311F095FD71C08091FC01882309F06CC080911401882331F08091B70185
:202260008C7F82608093B70180911501882331F08091B701837F88608093B701809116010D
:20228000882331F08091B7018F7C80628093B7018091BD01882331F110921C0510921D05CE
:2022A0008091140590911505A0911605B09117054E97A109B1098093140590931505A0932B
:2022C0001605B09317058091E2018093E30181E18093DF0182E18093E0018091200161E179
:2022E0000E946C041092C6011092C7011092C80181E08093FC0180911B01806880931B01D9
:202300000E9481322091D2013091D301442737FD4095542F621B730B840B950B6093CE016C
:202320007093CF018093D0019093D1018091F001823009F03DC18091E501882309F438C1AE
:20234000853009F435C18091CD0183FF63C08091BE01882309F05EC0209110053091110522
:2023600040911205509113058091B9019091BA01A091BB01B091BC0179018A01E81AF90AE0
:202380000A0B1B0BD801C70180599140A040B04068F48091B801813049F480911B0181FD28
:2023A00002C0826001C08D7F80931B012093B9013093BA014093BB015093BC0181E08093EF
:2023C000B80190E080911401882309F491E09093140181E08093AB0186E08093B4018091FE
:2023E0001C01992321F0826080931C0104C08D7F80931C015B9880912001807C90911C0182
:20240000892B809320016091DF010E946C0481E08093BE018091CD0184FF63C08091BF0168
:20242000882309F05EC0209110053091110540911205509113058091B9019091BA01A09184
:20244000BB01B091BC0179018A01E81AF90A0A0B1B0BD801C70180599140A040B04068F406
:202460008091B801823049F480911B0182FD02C0846001C08B7F80931B012093B901309327
:20248000BA014093BB015093BC0182E08093B80190E080911501882309F491E0909315013B
:2024A00081E08093AB0186E08093B40180911C01992321F0886080931C0104C0877F8093DE
:2024C0001C015C9880912001807C90911C01892B809320016091DF010E946C0481E0809340
:2024E000BF018091CD0185FF63C08091C001882309F05EC02091100530911105409112057D
:20250000509113058091B9019091BA01A091BB01B091BC0179018A01E81AF90A0A0B1B0BEB
:20252000D801C70180599140A040B04068F48091B801833049F480911B0183FD02C0886013
:2025400001C0877F80931B012093B9013093BA014093BB015093BC0183E08093B80190E0CC
:2025600080911601882309F491E09093160181E08093AB0186E08093B40180911C019923A8
:2025800021F0806280931C0104C08F7D80931C015D9880912001807C90911C01892B8093F0
:2025A00020016091DF010E946C0481E08093C0018091F001823009F054C080911401882350
:2025C000C1F08091BD018823A1F48091CD0183FF10C0E0911D05F0E0E85FFD4F808190E0A3
:2025E00000901C0502C0959587950A94E2F780FD5B9A809115018823C1F08091BD0188233C
:20260000A1F48091CD0184FF10C0E0911D05F0E0E65FFC4F808190E000901C0502C09595F2
:2026200087950A94E2F780FD5C9A809116018823C1F08091BD018823A1F48091CD0185FF9E
:2026400010C0E0911D05F0E0E45FFB4F808190E000901C0502C0959587950A94E2F780FD9C
:202660005D9A8091CD01282F80FD10C08091DE018130E1F51092DE0139C08091BE0181306E
:2026800029F41092BE019F7E90931B0121FD10C08091F901813079F51092F9012CC08091AF
:2026A000BF01813029F41092BF019F7D90931B0122FD2BC08091FC01813011F51092FC0161
:2026C00080911B018F7780931B011AC08091C0018130D9F41092C0019F7B90931B0115C0DD
:2026E00080916601882309F093CC97CC90911B0194FDC7CFC2CF90911B0195FDD4CFCFCFF7
:2027000090911B0196FDE6CFE1CF1F910F91FF90EF90089580915901882309F45FC0809146
:20272000A701833009F45AC08091DF01813409F055C00E94FA080E94580380910E05865CCC
:202740000E94AA076AE070E080E090E00E948F3288E00E94AA078091E5018823E9F121E021
:202760002093080110921C0510921D0510920202109201028091140590911505A09116051A
:20278000B09117054E97A109B1098093140590931505A0931605B09317052093F9018091BF
:2027A000E2018093E3015F9A8091100590911105A0911205B09113058093180590931905D7
:2027C000A0931A05B0931B0520930502809103028093040220936B01109259010895EF9222
:2027E000FF920F931F937C018B0185E695E0B7010E94592B85E695E0612F0E94DB2B107095
:2028000085E695E0602F0E94DB2B85E695E00E941E2C85E695E0B70141E050E00E942F2CEF
:2028200085E695E00E94632B892B11F48FEF04C085E695E00E946C2B1F910F91FF90EF9016
:202840000895CF92DF92FF920F931F93CF93DF9310925F0100E010E0C0E0D0E091E0C92EC6
:20286000D12C80E590E0BE010E94EF138F3F61F49601002E02C0220F331F0A94E2F780916E
:202880005F01822B80935F010F5F1F4FC851DC4F8FE1C034D80729F7DF91CF911F910F9115
:2028A000FF90DF90CF900895AF92BF92CF92DF92EF92FF920F931F9380E590E064E070E0EB
:2028C0000E94EF13182F80E590E065E070E00E94EF13382F20E0210F311D3093AA012093F9
:2028E000A90100E010E06091A9017091AA0168537F4F600F711F80E590E00E94EF13F8011D
:20290000E85FFD4F80836091A9017091AA0164537E4F600F711F80E590E00E94EF13F801E5
:20292000E65FFC4F80836091A9017091AA0160537D4F600F711F80E590E00E94EF13F801CD
:20294000E45FFB4F80838091A701833019F0802F0E945A050F5F1F4F21E00030120719F68D
:202960006091A9017091AA016A5A7F4F80E590E00E94EF1380935A018150803218F08FE09D
:2029800080935A0180E590E063E070E00E94EF1380E590E063E070E00E94EF13282F80FFDB
:2029A00004C081E08093140107C010921401809120018D7F8093200121FF04C081E0809382
:2029C000150107C01092150180912001877F8093200122FF04C081E08093160107C010921D
:2029E0001601809120018F7D809320018091200180931C018093D40123FD05C080911B01F2
:202A00008D7F80931B0124FD05C080911B018B7F80931B0125FD05C080911B01877F809302
:202A20001B0182E08093E5018093FA0183E00E94DE0184E10E9423339093CA018093C90105
:202A400084E00E94DE010091C9011091CA0184E10E942333800F911F9093CA018093C90163
:202A60008050944034F08FEF93E09093CA018093C9016091C9017091CA017093CC01609388
:202A8000CB018DB79EB708970FB6F8949EBF0FBE8DBF0DB71EB70F5F1F4F882777FD8095BE
:202AA000982F0E94E635F801608371838283938380E090E0A0E0B0E484839583A683B78341
:202AC00060E070E080E090E020E030EC4FE754E40F2EF0E0EF2EF0E0FF2EF8EC0F2FF2E4ED
:202AE0001F2FF02D0F2EF0E0AF2EF0E0BF2EF0ECCF2EF0E4DF2EF02D0E943D020E94B33582
:202B00007093D3016093D2018DB79EB708960FB6F8949EBF0FBE8DBF6091A9017091AA01D3
:202B20006F5F7F4F80E590E00E94EF13D82E6091A9017091AA016E5F7F4F80E590E00E9421
:202B4000EF13F82EEE24ED0CF11CF0921F01E0921E0110921C0510921D0510920202109233
:202B6000010200D000D00027F7FC0095102F80EC90E0A0E0B0E0EDB7FEB781839283A38340
:202B8000B48360E070E080E090E020E030E040E050E0AA24BB2465010E946F346093E20110
:202BA0000F900F900F900F901F910F91FF90EF90DF90CF90BF90AF9008951F936091A901F5
:202BC0007091AA0180E590E00E94EF138F3FC9F50E9454140E945F069091200190931C01B1
:202BE0009093D4018091A701833089F0892F6091DF010E946C040E94FA0880915B0190912B
:202C00005C019093DD018093DC010E9458030E94813220910E0530910F05442737FD409507
:202C2000542F621B730B840B950B6093140570931505809316059093170586E080939E0139
:202C400051C010929E011092EF010E94813220910E0530910F05442737FD4095542F621B2E
:202C6000730B840B950B6093140570931505809316059093170511E01093DE011092EC010F
:202C800083E08093E5011092F0010E945F0610921C0510921D05109202021092010280915B
:202CA000140590911505A0911605B09117054E97A109B1098093140590931505A093160517
:202CC000B09317058CE291E090930B0180930A011092C2011093AB011092B4011092B30108
:202CE0001092B2011F910895DF92EF92FF920F931F939C018B01D42E45E6E42E45E0F42EAC
:202D0000C701B9010E94592BC701612F0E94DB2B1070C701602F0E94DB2BC7016D2D0E9488
:202D2000DB2BC7010E941E2C1F910F91FF90EF90DF900895EF92FF920F931F938091AB014C
:202D4000813009F0EAC1209110053091110540911205509113058091AE019091AF01A091DE
:202D6000B001B091B10179018A01E81AF90A0A0B1B0BD801C7010A97A105B10508F4CDC142
:202D80002093AE013093AF014093B0015093B1018091B4018231A1F48091A801882349F099
:202DA0006091A9017091AA0180E590E04FEF0E9474161092A8018091B4018F5F8093B401C6
:202DC0008091B401813189F46091A9017091AA016A5A7F4F80E590E040915A010E947416F8
:202DE0008091B4018F5F8093B4018091B401803169F480E590E067E570E040915E010E9440
:202E000074168091B4018F5F8093B4018091B4018F3091F44091010250910202452F550F11
:202E2000550B80E590E069E470E00E9474168091B4018E5F8093B4018091B4018E3069F438
:202E400080E590E068E470E0409101020E9474168091B4018F5F8093B4018091B4018D3002
:202E600069F480E590E067E470E04091DF010E9474168091B4018F5F8093B4018091B40166
:202E80008C3079F580911D01882341F58091E40163E00E948338482F80911D05A82FB0E051
:202EA000FD01E85FFD4F8081813009F44062FD01E65FFC4F8081813009F44064A45FBB4F42
:202EC0008C91813009F4406880E590E066E470E00E9474168091B4018F5F01C081E18093FA
:202EE000B4018091B4018B3069F480E590E066E070E040918B010E9474168091B4018F5F97
:202F00008093B4018091B4018A3091F44091A9015091AA01452F550F550B80E590E065E08B
:202F200070E00E9474168091B4018F5F8093B4018091B401893069F480E590E064E070E054
:202F40004091A9010E9474168091B4018F5F8093B4018091B401883039F580911B0181FDF7
:202F600002C010E001C018E082FD106183FD1062187F80E590E063E070E00E94EF13182B1E
:202F800080911D01813019F4412F406802C0412F4F7780E590E063E070E00E94741680918F
:202FA000B4018F5F8093B4018091B4018730B9F440911401411141E08091150181114260C8
:202FC000809116018111446080E590E063E070E00E9474168091B4018F5F8093B401809172
:202FE000B401863081F46091A9017091AA016E5F7F4F40911E0150911F01452F550F550BE6
:2030000080E590E00CC0853091F46091A9017091AA016F5F7F4F80E590E040911E010E948B
:2030200074168091B4018F5F8093B40156C0833079F4E091B201F091B3016091A90170915F
:20304000AA016E0F7F1F60537D4FE45FFB4F21C0823079F4E091B201F091B3016091A901AA
:203060007091AA016E0F7F1F64537E4FE65FFC4F10C0813091F4E091B201F091B301609125
:20308000A9017091AA016E0F7F1F68537F4FE85FFD4F80E590E04081C2CF8430F1F4209132
:2030A000B2013091B30180911E0190911F0160E170E00E94A3386217730734F41092B301F8
:2030C0001092B20185E0B0CF81E08093B4012F5F3F4F3093B3012093B2018091B401882324
:2030E00091F46091A9017091AA0180E590E040E00E9474168091B4018F5F8093B40181E006
:203100008093A8010AC0833141F4809120016091DF010E946C041092AB011F910F91FF90FE
:20312000EF9008950F931F93CF93DF93C0E0D0E00FEF1FE080E590E0BE0140E00E9474161E
:203140006AE070E080E090E00E948F3210931F0100931E01219680E590E0BE014FEF0E9402
:2031600074166AE070E080E090E00E948F32219640911E0150911F01452F550F550B80E5B3
:2031800090E0BE010E9474166AE070E080E090E00E948F32CC5ADF4F80E590E0BE014FE0F0
:2031A0000E9474166AE070E080E090E00E948F32CE56DC4F8FE1C034D80709F0BBCF80E59C
:2031C00090E064E070E040E00E9474166AE070E080E090E00E948F3280E590E065E070E068
:2031E00040E00E9474166AE070E080E090E00E948F32C6E4D0E080E590E0BE0140E00E9406
:2032000074166AE070E080E090E00E948F322196CA34D10581F780E590E069E570E040E0C1
:203220000E9474166AE070E080E090E00E948F32DF91CF911F910F910895CF93DF938FE68F
:2032400091E00E94BD30892B09F449C28FE691E00E949C30282FC82FD0E0CE0166E0959521
:2032600087956A95E1F78130910549F5822F8054843130F42A5320930E0510920F052FC28E
:20328000265530E088EE93E0AC01249FC001259F900D349F900D11249093AA018093A901F8
:2032A0000E948132665970408040904060939F017093A0018093A1019093A20110C2823084
:2032C000910581F48091EF01882309F008C2C058D040CC0FDD1FCC0FDD1FC0931D05109287
:2032E0001C05FDC18330910589F48091EF01882309F0F5C1C05CD04046E0CC0FDD1F4A95C6
:20330000E1F7D0930202C0930102E9C1892B09F0E6C1222341F581E08093080120910E055E
:2033200030910F05442737FD4095542F8091E7019091E801A091E901B091EA01821B930B3C
:20334000A40BB50B8093140590931505A0931605B093170580911E0190911F019093020250
:2033600080930102BCC1213081F52093EE0110920601109207018091E501882359F420935C
:20338000EC012093EF0180910102909102020E94B00703C085E08093E50121E02093EF0146
:2033A0002093C2018091100590911105A0911205B091130580939F019093A001A093A1014D
:2033C000B093A20120939E018AC1223029F41092DF010E94050983C1233059F58091EC01E6
:2033E000882309F07CC181E0809307016091EF01613071F520910A0130910B01442737FD70
:203400004095542F8091100590911105A0911205B0911305821B930BA40BB50B8093F501A3
:203420009093F601A093F701B093F8016093EE0156C12430A1F48091EC01882309F04FC177
:203440008091EF01882309F44AC181E08093EC0180910102909102020E94B00740C125306F
:2034600071F481E08093AB011092B4011092FD011092FE011092FF011092EB0100C12630E8
:2034800019F40E945D072BC1CE0135E0959587953A95E1F7019751F580916501882311F05B
:2034A0001092650121E02093660110921D018091E7019091E801A091E901B091EA018093CC
:2034C000140590931505A0931605B093170588E08093B4012093AB010E948B06CA5FDE4FD1
:2034E00068816093DF0180912001A8C0273019F580916501882311F01092650181E0809372
:20350000660110921D012091E7013091E8014091E9015091EA01209314053093150540933E
:2035200016055093170598E09093B4018093AB010E948B06D4C0283009F043C08091E50150
:20354000882309F4CCC021E02093080110921C0510921D051092020210920102809114057E
:2035600090911505A0911605B09117054E97A109B1098093140590931505A0931605B09324
:2035800017052093F9018091E2018093E3015F9A8091100590911105A0911205B091130580
:2035A0008093180590931905A0931A05B0931B0520930502809103028093040220936B01DD
:2035C0008EC0293041F581E08093080110921C0510921D05109202021092010220911405F5
:2035E0003091150540911605509117052E5130404040504020931405309315054093160571
:20360000509317058093F9019091E2019093E30180936B0164C02A30A1F410921C0510929C
:203620001D05109202021092010281E08093BD0181E18093DF018091200161E10E946C0410
:203640004EC02B3031F481E080936B011092690146C02C3081F48BB187748BB98BB18BB91E
:203660008091A9019091AA01909361018093600110926B0134C02D3029F40E945F061092A5
:20368000EF012DC02E3039F4109268010E94130F0E94921824C02F3011F481E003C02031EA
:2036A00021F482E080935D011AC0213139F481E080936B0183E080939E0111C0223179F443
:2036C0008091A9019091AA01909361018093600110926B018BB187748BB98BB18BB9DF91F1
:2036E000CF910895BF92CF92DF92EF92FF920F931F93CF93DF9380919E01813009F0DFC077
:203700008091A701833009F4DAC08091100590911105A0911205B091130520919F01309196
:20372000A0014091A1015091A201821B930BA40BB50B805D9740A040B04078F080910A013F
:2037400090910B018C52914041F40E94211486E990E090930B0180930A018091100590910E
:203760001105A0911205B091130520919F013091A0014091A1015091A201821B930BA40BFE
:20378000B50B8A509F40A040B04068F080911D01882349F48091A701813029F486E00E94E2
:2037A000AA070E945D078091100590911105A0911205B091130520919F013091A0014091D0
:2037C000A1015091A201821B930BA40BB50B805A9F40A040B04008F472C08091AB018823FA
:2037E00009F06DC06091A9017091AA0180E590E00E94EF138F3F09F062C08091A90190911E
:20380000AA01909361018093600185E16FEF0E949F078091A701813049F482E10E94AA079B
:2038200064E170E080E090E00E948F3286E00E94DE0184E10E9423332091170130911801D9
:2038400082179307B4F786E00E94D833892B89F78091A9019091AA0168EE73E00E94A33896
:20386000862F8A5A0E94AA076CE271E080E090E00E948F3280E060E00E949F078BB187746B
:203880008BB98BB18BB91092B6018091A701813019F481E10E94AA0784E080939E018091B8
:2038A000100590911105A0911205B091130580939F019093A001A093A101B093A20100E009
:2038C000B3E0FB2E10E0EE24E394A4E0CA2EF3E0BF2ECCE2D1E0E5E0DE2E7DC18BB18774D2
:2038E0008BB98BB18BB90E941D190E94813220919F013091A0014091A1015091A201621BB0
:20390000730B840B950B663971058105910508F447C0F39484E0F81609F4FF24002361F138
:203920002091A9013091AA01C90168EE73E00E94A338FB0180915F0190E0062E02C09595D3
:2039400087950A94E2F780FD02C015E101C01AE2232B09F41AE221E02F1508F010E080915D
:20396000A701833009F410E0E45FFE4F812F60810E949F0700E00AC08091A701833009F483
:2039800010E0812F60E00E949F0701E00E94813260939F017093A0018093A1019093A20117
:2039A00086E00E94D8330197C1F580919E018330A1F52091A701233081F18091A9019091B3
:2039C000AA0188519C4F9093AA018093A90189559B4124F01092AA011092A901213061F4E0
:2039E0008091A9019091AA0168EE73E00E94A338862F8A5A0E94AA07C0929E010E948132E8
:203A0000665970408040904060939F017093A0018093A1019093A20101E086E00E94D83301
:203A2000892B61F480919E01843041F4B0929E0162E370E080E090E00E948F328FE00E942A
:203A400023338052934024F08091A701833021F480915D01813059F48091A701813019F4F2
:203A60008FE00E94AA070E94290F10925D0184E10E94233320911701309118018217930777
:203A800024F08091A701833029F480915D01823009F0A1C08091A701813019F480E10E9494
:203AA000AA0710925D0120916001309161018091A9019091AA012817390719F40E94290F33
:203AC0008AC08091A7018130F1F48BE00E94AA0764E670E080E090E00E948F3289E00E94B7
:203AE000AA0768EC70E080E090E00E948F328091A9019091AA0168EE73E00E94A338862FDC
:203B00008A5A0E94AA07D0930B01C0930A01D0929E016AE070E080E090E00E948F3280E56E
:203B200090E064E070E04091A9010E9474166AE070E080E090E00E948F324091A9015091B1
:203B4000AA01452F550F550B80E590E065E070E00E9474166AE070E080E090E00E948F321F
:203B6000D0930B01C0930A010E94DD1568EC70E080E090E00E948F3264E670E080E090E0A3
:203B80000E948F320E94350BE092EE010E94680810921C0510921D0510920202109201029B
:203BA0008091140590911505A0911605B09117054E97A109B1098093140590931505A09312
:203BC0001605B093170564E670E080E090E00E948F32E092590190919E01892F83508230D5
:203BE00008F47CCE9530A9F51092DE011092CD011092F9011092FC01109200021092C201E7
:203C00001092EC0110921C0510921D05109202021092010210929E011092F0011092EF01DD
:203C200081E080931D010E94813220910E0530910F05442737FD4095542F621B730B840B83
:203C4000950B6093140570931505809316059093170580919E01863021F410929E011092D0
:203C6000EF01DF91CF911F910F91FF90EF90DF90CF90BF90089586E00E94DE0184E10E947E
:203C800023332091170130911801281739070CF063C186E00E94D833892B09F05DC180919D
:203CA0000601882309F458C180910701882309F453C180910901882349F0809120018F7334
:203CC00080938D0180938E01109209018FE00E942333815293400CF458C080911005909189
:203CE0001105A0911205B091130520918F01309190014091910150919201821B930BA40BB9
:203D0000B50B8C529140A040B04040F580919B01882321F581E080939B0190918E01916010
:203D20009D7F90938E01809120018C7F892B809320016091DF010E946C04E8E0F2E0119270
:203D400083E0E730F807D9F781E08093AB011092B4011092B3011092B2015B9880919B0158
:203D6000882399F48091100590911105A0911205B091130580938F0190939001A0939101F1
:203D8000B093920181E080939B018FE00E9423338052934034F480919B01813011F4109204
:203DA0009B018091A701833009F46BC080E10E942333815293400CF458C080911005909175
:203DC0001105A0911205B091130520919301309194014091950150919601821B930BA40BC8
:203DE000B50B8C529140A040B04040F580919C01882321F581E080939C0190918E0194602B
:203E0000977F90938E0180912001837F892B809320016091DF010E946C04EAE0F3E011929B
:203E200084E0E930F807D9F781E08093AB011092B4011092B3011092B2015C9880919C0172
:203E4000882399F48091100590911105A0911205B09113058093930190939401A093950104
:203E6000B093960181E080939C0180E10E9423338052934034F480919C01813011F410922B
:203E80009C0181E10E942333815293400CF458C08091100590911105A0911205B09113056F
:203EA00020919701309198014091990150919A01821B930BA40BB50B8C529140A040B0404F
:203EC00040F580919D01882321F581E080939D0190918E0190619F7D90938E01809120018A
:203EE0008F7C892B809320016091DF010E946C04ECE0F4E0119285E0EB30F807D9F781E0F9
:203F00008093AB011092B4011092B3011092B2015D9880919D01882399F4809110059091BD
:203F20001105A0911205B09113058093970190939801A0939901B0939A0181E080939D01A6
:203F400081E10E9423338052934034F480919D01813011F410929D010895AF92BF92CF9205
:203F6000DF92EF92FF920F931F93E0901005F090110500911205109113058091CE019091ED
:203F8000CF01A091D001B091D101A8019701281B390B4A0B5B0B8091D2019091D301AA270F
:203FA00097FDA095BA2F82179307A407B50780F4E092CE01F092CF010093D0011093D101D5
:203FC00090E08091D501882309F491E09093D50183E00E94DE0184E10E942333FC01909317
:203FE000CA018093C9018091F00190915A01823041F5909358018091C3019091C4016AE032
:2040000070E00E94A3389B01CF016AE070E00E94A3382617370741F0CF0160E270E00E94A0
:20402000A3386F5F60935A0190915A0180915801981769F081E08093AB0182E18093B40150
:2040400006C0F093C401E093C3019093580184E00E94DE010091C9011091CA0184E10E94EC
:204060002333800F911F9093CA018093C9018050944034F08FEF93E09093CA018093C9015C
:204080002091C9013091CA018091CB019091CC01A901481B590BCA0157FF03C090958195BE
:2040A0009F4F0F970CF455C08DB79EB708970FB6F8949EBF0FBE8DBF0DB71EB70F5F1F4FE3
:2040C000B901882777FD8095982F0E94E635F801608371838283938380E090E0A0E0B0E49B
:2040E00084839583A683B78360E070E080E090E020E030EC4FE754E40F2EF0E0EF2EF0E05A
:20410000FF2EF8EC0F2FF2E41F2FF02D0F2EF0E0AF2EF0E0BF2EF0ECCF2EF0E4DF2EF02D91
:204120000E943D020E94B3357093D3016093D2018091C9019091CA019093CC018093CB01E1
:204140004DB75EB7485F5F4F0FB6F8945EBF0FBE4DBF86E00E94DE0184E10E94233300E086
:204160002091170130911801281739070CF401E08091A701833011F40E941D190E94721BC4
:2041800080916501882311F12091010230910202809163019091640128173907C9F41092A9
:2041A000650110921D010E948B068091140590911505A0911605B09117058093E70190937A
:2041C000E801A093E901B093EA0102C00E94960F8091EF01882331F48091FA01813011F013
:2041E0000E945F0689B190E087709070892B09F415C58091EF01882309F010C51092060169
:20420000002309F441C08091EC018823E9F58091F0018823C9F5809106018823A9F180911D
:204220000701882389F11091A701113021F51093EE0183E00E94AA071093EC0180910102C5
:20424000909102020E94B00780910E0590910F050D9774F020911E0130911F0180910401B8
:2042600090910501821793071CF010935E010CC010925E0109C081E08093EC0180910102CB
:20428000909102020E94B0071091A7011130A9F480911D058F3F89F48091EF01823068F0F0
:2042A0001093EE0183E00E94AA071093EC0180910102909102020E94B0078091F0018230E0
:2042C00009F044C0002309F441C08091C2018823E9F58091E5018823C9F180910601882344
:2042E000A9F180910701882389F11091A701113051F480910E05865C0E94AA071093EE012C
:2043000081E00E94AA078091A701833019F085E08093E50121E02093EF018091100590912B
:204320001105A0911205B091130580939F019093A001A093A101B093A2018091A701833028
:2043400011F020939E0181E08093C2018091EC01813039F58091E501823018F1809110051E
:2043600090911105A0911205B09113052091F1013091F2014091F3015091F401821B930B38
:20438000A40BB50B88559240A040B04020F48091ED01813031F481E08093ED0182E080936F
:2043A000EC0186E00E94D833892BE1F5002309F089C08091F0018823C1F18091CD01882325
:2043C000A1F51092C2011092F0011092B80180911401882321F082E08093200102C0109218
:2043E000200180911501882329F08091200188608093200180911601882329F08091200145
:204400008062809320018091FA01813021F485E9809320010AC0809120016091DF010E94A3
:204420006C0403C0002309F04DC08091EC01882309F448C01092EC018091ED018130B1F48E
:204440008091A701813019F485E00E94AA0781E08093AB011092B4011092FD011092FE0175
:204460001092FF011092EB011092EF011092ED0180911401882321F082E08093200102C0B0
:204480001092200180911501882329F08091200188608093200180911601882329F0809123
:2044A00020018062809320018091FA01813021F485E98093200106C0809120016091DF0188
:2044C0000E946C0486E00E94D833019709F5809100028823E9F48091CD018823C9F400231C
:2044E000B9F48091EF01882399F48091E501882379F081E08093000280912001806480932C
:2045000020016091DF010E946C0482E08093F00186E00E94D833892BB9F4809100028130F9
:2045200099F410929E0110920002809120018F7B809320016091DF010E946C048CE291E0D7
:2045400090930B0180930A018091DF010E9475081091EF011130C9F58091E50165E00E9490
:204560008338992391F50E946F0989B190E087709070892B51F18091A701833031F182E09D
:204580008093EF01002321F01093ED018093EC018091A701813091F40E94FA080E945803C3
:2045A00080910E05865C0E94AA0780916601882329F086E00E94AA071092660182E00E94A0
:2045C000AA071092DF010E9405099091EF01913009F0B0C08091E5018150843008F0AAC0DF
:2045E000489B36C0002329F09093ED0182E08093EC0111E0109314018091200180931C0128
:204600005B989091D4019C7F92609093D4018C7F8160809320016091DF010E946C04809198
:20462000A701833011F010931D018091A701813019F486E00E94AA0791E09093FD0182E039
:204640008093EF019093EB011092C6010E947E01499B37C0002331F081E08093ED0182E0DB
:204660008093EC0111E0109315018091200180931C015C989091D401937F98609093D40142
:20468000837F8460809320016091DF010E946C048091A701833011F010931D018091A70136
:2046A000813019F486E00E94AA0791E09093FE0182E08093EF019093EB011092C7010E9470
:2046C0007E014A9B37C0002331F081E08093ED0182E08093EC0111E010931601809120019A
:2046E00080931C015D989091D4019F7C90629093D4018F7C8061809320016091DF010E9407
:204700006C048091A701833011F010931D018091A701813019F486E00E94AA0791E0909337
:20472000FF0182E08093EF019093EB011092C8010E947E018091EF01823008F4CFC080912A
:20474000E5018150843008F0C9C0489B41C0809114018823E9F511E01093140180912001FF
:2047600080931C015B989091D4019C7F92609093D4018C7F8160809320016091DF010E9488
:204780006C0410931D011093FD0182E08093EF011093EB011092C60120910E0530910F0551
:2047A000442737FD4095542F8091100590911105A0911205B0911305821B930BA40BB50B5A
:2047C0008093140590931505A0931605B0931705499B41C0809115018823E9F511E010939A
:2047E00015018091200180931C015C989091D401937F98609093D401837F8460809320013B
:204800006091DF010E946C0410931D011093FE0182E08093EF011093EB011092C701209143
:204820000E0530910F05442737FD4095542F8091100590911105A0911205B0911305821BFE
:20484000930BA40BB50B8093140590931505A0931605B09317054A9B41C08091160188237C
:20486000E9F511E0109316018091200180931C015D989091D4019F7C90629093D4018F7C52
:204880008061809320016091DF010E946C0410931D011093FF0182E08093EF011093EB01C8
:2048A0001092C80120910E0530910F05442737FD4095542F8091100590911105A091120558
:2048C000B0911305821B930BA40BB50B8093140590931505A0931605B09317050E949B047E
:2048E0000E943B1E0E94060A60911D058091FA0170E00E94CB0580911D01813009F0E5C0AC
:20490000209101023091020280911E0190911F01821793070CF4D4C08091FD01882309F033
:2049200041C08091C6018823E9F5809114018823C1F4E0911D05F0E0E85FFD4F808190E028
:2049400000901C0502C0959587950A94E2F79091AC0180FF02C0986001C0977F9093AC0179
:2049600020C0809165018823E9F4E0911D05F0E0E85FFD4F808190E000901C0502C0959554
:2049800087950A94E2F780FF0CC080911B0187FF06C081FF04C08091D501882311F05B9AF4
:2049A00001C05B988091FE01882309F041C08091C7018823E9F5809115018823C1F4E09134
:2049C0001D05F0E0E65FFC4F808190E000901C0502C0959587950A94E2F79091AC0180FF67
:2049E00002C0906101C09F7E9093AC0120C0809165018823E9F4E0911D05F0E0E65FFC4F84
:204A0000808190E000901C0502C0959587950A94E2F780FF0CC080911B0187FF06C082FFB0
:204A200004C08091D501882311F05C9A01C05C988091FF01882309F048C08091C801882332
:204A400009F043C0809116018823C1F4E0911D05F0E0E45FFB4F808190E000901C0502C0FE
:204A6000959587950A94E2F79091AC0180FF02C0906201C09F7D9093AC0120C08091650174
:204A8000882319F5E0911D05F0E0E45FFB4F808190E000901C0502C0959587950A94E2F7CC
:204AA00080FF0CC080911B0187FF06C083FF04C08091D501882311F05D9A07C05D9805C0E1
:204AC0008BB1877C8BB98BB18BB980911D01882309F099C0489904C080911401882309F434
:204AE0005B98499904C080911501882309F45C984A9904C080911601882309F45D988091DD
:204B00006501882309F04CC0E0911D05F0E0E85FFD4F808190E000901C0502C0959587955F
:204B20000A94E2F780FF08C080911401882321F088E08093AC0102C01092AC01E0911D0509
:204B4000F0E0E65FFC4F808190E000901C0502C0959587950A94E2F780FF09C080911501E5
:204B6000882329F08091AC0180618093AC01E0911D05F0E0E45FFB4F808190E000901C0500
:204B800002C0959587950A94E2F780FF09C080911601882329F08091AC0180628093AC0102
:204BA0002091F001213079F180911B0181FD02C09FEF01C097EF82FD9F7E83FD9F7D80910D
:204BC000CD0182FF12C0222321F085FD1CC02230D1F481E08093AD018091D501882359F4E8
:204BE0008BB198239BB98BB10DC08091AD01882351F01092AD018BB198239BB98BB19091BE
:204C0000AC01892B8BB90E943C0E1F910F91FF90EF90DF90CF90BF90AF90089581E0809338
:204C20000601EECA1F93CF93DF9380916501882371F08091A701833051F08FE00E94233398
:204C40008152934024F01092650110921D018091A701833011F512C080E060E00E949F07A6
:204C60000E941D195F9880916501882351F0D0930F05C0930E0510936B0103C0C1E0D0E002
:204C800011E080916B01882339F38091E501882309F04DC0109207014AC080916B0188234B
:204CA00009F045C08BE00E94AA0764E670E080E090E00E948F320E94350B80916501882367
:204CC00031F081E090E090930F0580930E050E94FA080E94580380910E05865C0E94AA078B
:204CE00068E270E080E090E00E948F3289E00E94AA0710921C0510921D051092020210925C
:204D000001028091140590911505A0911605B09117054E97A109B1098093140590931505D0
:204D2000A0931605B093170581E080936B010E948132609310057093110580931205909323
:204D400013050E94AD1F0E948A130E949A16DF91CF911F9108954F925F926F927F928F921A
:204D60009F92AF92BF92CF92DF92EF92FF920F931F93CF93DF9388EB8AB98FE384B98EE091
:204D800061E00E9445338FED95E064E070E00E94A62E809367010E9481322B013C018FE015
:204DA0000E9423338B58924084F080E10E9423338B58924054F081E10E9423338B58924071
:204DC00024F08AE260E00E946C04BAE2EB2EFF248824C1E0D0E048C15EE05F1508F440C174
:204DE00000E010E0CE01002E02C0880F991F0A94E2F7E8268E2D60E00E946C040F5F1F4F67
:204E00000630110579F7F3942BC185E160E00E946C0486E00E94D833019709F0ECC38820B0
:204E200009F0E9C3F394882483941EC1882480E1F81629F48E2D66E60E946C04FFC0E1E1D2
:204E4000FE1609F0F7C08E2D69E90E946C048FE00E942333855F9140D4F717C48E2D69E9A0
:204E60000E946C040E94FA0880E00E94DE0184E10E94233300D000D0AA2797FDA095BA2F1B
:204E800026E232E040E050E0EDB7FEB72183328343835483BC01CD0120E030E040E050E06E
:204EA000AFEFEA2EA3E0FA2E012D112DF8E7AF2EB12CC12CD12C0E946F347093A4016093C2
:204EC000A3010F900F900F900F9083E00E94DE0184E10E94233300D000D0AA2797FDA09537
:204EE000BA2F28E532E040E050E0EDB7FEB72183328343835483BC01CD0120E030E040E050
:204F000050E0E8ECAE2EB12CC12CD12C0E946F34AB017093A6016093A50120915B013091E8
:204F20005C010F900F900F900F908091A3019091A4012817390734F0241735071CF49AE277
:204F4000E92E02C085E1E82E8FE00E942333855F914064F0992051F0809167018F5F809318
:204F60006701823010F01092670199248FE00E942333845F914024F4992011F4992493947B
:204F800080916701813019F487E061E002C087E060E00E94843386E00E94D833019709F0CC
:204FA0005DCF8FE00E9423338A5892400CF056CF80E10E9423338A5892400CF04FCF81E100
:204FC0000E9423338A5892400CF048CF8FED95E060E070E04091A3010E94AD2E4091A3012A
:204FE0005091A401452F550F550B8FED95E061E070E00E94AD2E8FED95E062E070E04091A0
:20500000A5010E94AD2E4091A5015091A601452F550F550B8FED95E063E070E00E94AD2E35
:205020008FED95E064E070E0409167010E94AD2EFF2404C080E18F1508F427C38FE00E9452
:2050400023338A58924064F480E10E9423338A58924034F481E10E9423338A58924024F097
:205060003EE03F1508F4D1CE8FE00E9423338B5892400CF4C7C280E10E9423338B58924070
:205080000CF4C0C281E10E9423338B5892400CF4B9C20E948132641975098609970920E97C
:2050A00031E040E050E00E94B6386115710581059105B1F691CE1092A70182E033C0F2E080
:2050C0002E3E3F07FCF081E08093A7018FE691E040E051EE60E070E00E94A12F86E0809356
:2050E0006C018CE080936D0188E180936E0188E060E00E946C046CEB72E080E090E00E9496
:205100008F3213C0225330402C5B324070F49093A7018FE691E040E051EE60E070E00E9477
:20512000A12F80E260E00E946C046AEF70E080E090E00E948F328AE2809320016091DF019E
:205140000E946C045F980E948132609314057093150580931605909317056093AE017093B6
:20516000AF018093B0019093B10185E695E00E94332C85E10E9423330E94DA34C0E0D0E0A7
:205180000AE510E06EEF70E080E090E00E94B834462FC60FD11D80E590E0B8010E94741633
:2051A0006AE070E080E090E00E948F320F5F1F4F0E35110539F780E590E06AE570E00E94A7
:2051C000EF13082F80E590E06BE570E00E94EF13E82E80E590E06CE570E00E94EF13F82E27
:2051E00080E590E06DE570E00E94EF1310E00E0D111D0F0D111D080F111DC017D10709F024
:2052000096C180E590E064E070E00E94EF13182F80E590E065E070E00E94EF13382F20E06E
:20522000210F311D3093AA012093A901C90168EE73E00E94A338892BF1F01092AA011092B1
:20524000A90180E590E064E070E040E00E9474166AE070E080E090E00E948F3280E590E04D
:2052600065E070E040E00E9474166AE070E080E090E00E948F3280E590E064E070E00E9475
:20528000EF13182F80E590E065E070E00E94EF13382F20E0210F311D3093AA012093A90107
:2052A00068EC70E080E090E00E948F3286E00E94DE0184E10E942333209117013091180130
:2052C000821793070CF4ECC086E00E94D833019709F0E6C085ED6AEA0E946C0464E670E033
:2052E00080E090E00E948F3280EC65E50E946C0464E670E080E090E00E948F3281EC60E039
:205300000E946C040E948132609310057093110580931205909313050E9481322091100585
:20532000309111054091120550911305621B730B840B950B6C5B72408040904021F480ED00
:2053400060E00E946C040E94813220911005309111054091120550911305621B730B840B9E
:20536000950B685775408040904021F484EC60E00E946C040E9481322091100530911105C0
:205380004091120550911305621B730B840B950B645378408040904021F485ED60E00E949A
:2053A0006C040E94813220911005309111054091120550911305621B730B840B950B605FC1
:2053C0007A408040904009F05AC085ED60E00E946C048EE00E94AA070E94130F0E949218DB
:2053E00080E590E063E070E04FEF0E9474166AE070E080E090E00E948F3214E0173011F4CE
:2054000016E403C01A3409F418E580E590E0612F70E040E00E9474166AE070E080E090E01C
:205420000E948F321F5F1A3548F380E590E067E070E04FEF0E94741610925F011092AA01DC
:205440001092A90186E00E94D8330197D9F384E10E9423332091170130911801281739070A
:205460000CF4BACF86E00E94D833892B09F0B4CF8AE260E00E946C0410E001E013C084E199
:205480000E9423332091170130911801281739070CF442CF86E00E94D833892B09F03CCF16
:2054A00011E000E06091A9017091AA0180E590E00E94EF13809368018091A701833061F41E
:2054C00087E00E94DE0102C00E941D1984E10E942333893C9105C4F7809168018F3F01F599
:2054E000002381F581E08093C50180E590E069E570E00E94EF1380935F010E94541480E5E0
:2055000090E067E570E00E94EF1380935E0180E590E066E070E00E94EF1380938B0112C0E9
:20552000109259018FE080935A0110E00BC085E16FEF0E946C0460ED77E080E090E00E94EB
:205540008F3211E00E94350B0E9481326093140570931505809316059093170560939F0139
:205560007093A0018093A1019093A20180E590E063E070E00E94EF1387FD36C080E590E0B1
:2055800068E470E00E94EF13182F80E590E069E470E00E94EF13382F20E0210F311D3093C6
:2055A00064012093630180E590E067E470E00E94EF13682F80936201809120010E946C040A
:2055C00080E590E066E470E00E94EF1385FF02C05B9A8F7D86FF02C05C9A8F7B87FD5D9AAF
:2055E00081E08093650154C0112309F451C081E0809359014DC086E00E94D833892B09F0E0
:2056000016CC14CC80E060E00E946C048FED95E060E070E00E94A62E182F8FED95E061E0A6
:2056200070E00E94A62E382F20E0210F311D3093A4012093A3018FED95E062E070E00E94DB
:20564000A62E182F8FED95E063E070E00E94A62E382F20E0210F311D3093A6012093A5018D
:2056600085E00E94DE0184E10E9423339C0193E090936C018BE080936D0186E180936E0172
:205680002E3131050CF01BCD16CD99249394E6CBDF91CF911F910F91FF90EF90DF90CF901D
:2056A000BF90AF909F908F907F906F905F904F90089581E080936405609341051092620576
:2056C0001092630508952091400530E080913F05281B3109C901089540913F058091400579
:2056E000481718F02FEF3FEF0AC0E42FF0E0E15EFA4F8081282F30E04F5F40933F05C901CB
:205700000895E0913F0580914005E81718F0EFEFFFEF06C0F0E0E15EFA4F8081E82FF0E008
:20572000CF0108950895109268051092670588EE93E0A0E0B0E08093690590936A05A09303
:205740006B05B0936C058BE391E090936605809365050895CF92DF92EF92FF920F931F9366
:20576000CF93DF937C016B018A01809164058823A1F0C0E0D0E00DC0D701ED91FC91D60154
:20578000AC0FBD1F0190F081E02DC7016C9109952196C017D10780F304C0CB01642F0E9462
:2057A000DC2CC801DF91CF911F910F91FF90EF90DF90CF900895DF93CF930F92CDB7DEB7F1
:2057C000FC016983809164058823C9F080916305803238F081E090E09383828320E030E0B3
:2057E00015C080916205E82FF0E0EE5BFA4F998190838F5F809362058093630505C0CE013F
:20580000019661E00E94DC2C21E030E0C9010F90CF91DF9108950F93062F8091410562E4AB
:2058200075E04091630521E00E94872C1092620510926305109264050F91089561E00E9446
:205840000B2C0895413208F040E2862F6FE175E00E943E2C10923F0580934005089521E0A5
:205860000E94222C089510923F051092400510926205109263050E94882E0895382F4132EC
:2058800010F040E042C0809171058823E1F791E090937105209373058FEF8093DE05109291
:2058A0009905415040939A054F5F9093720580917205330F832B80937205809174058130C2
:2058C00041F410927405809172058093BB0085EC01C085EE8093BC00809171058130E1F3A2
:2058E00080919905841710F44091990520E030E00AC0FB01E20FF31FD901A758BA4F8C9113
:2059000080832F5F3F4F2417A0F3842F08950F931F93582F122F413210F081E04AC080913F
:2059200071058823E1F782E080937105009373058FEF8093DE051092990540939A05A9E7C2
:20594000B5E0FB0102C081918D938E2F861B8417D0F31092720580917205550F852B80933E
:20596000720580917405813041F410927405809172058093BB0085EC01C085EE8093BC005B
:20598000112321F0809171058230E1F38091DE058F3F11F480E00DC08091DE05803211F416
:2059A00082E007C08091DE05803311F084E001C083E01F910F910895482F613210F081E036
:2059C000089580917105843011F082E008956093BC05ABE9B5E0842F9C01F90102C08191F4
:2059E0008D938E2F841B8617D0F380E008951F920F920FB60F9211242F933F934F935F9379
:205A00006F937F938F939F93AF93BF93EF93FF938091B90090E0887F90708036910509F4EC
:205A2000F2C081369105CCF58832910509F47BC089329105B4F48031910509F46FC0813100
:205A400091053CF4009709F447C1089709F04FC165C08831910509F466C0809709F047C18D
:205A600082C08034910509F4A4C08134910544F48033910509F482C0C89709F038C189C094
:205A80008035910509F489C08835910509F496C08834910509F02BC1AEC08839910509F4D6
:205AA00013C189399105ECF48837910509F4ABC0893791054CF48836910509F4A4C080371B
:205AC000910509F014C19FC08838910509F4FCC08039910509F49DC08038910509F007C13C
:205AE00098C0803B910509F4C6C0813B91054CF4803A910509F49FC0883A910509F0F7C034
:205B0000BAC0803C910509F4E3C0883C910509F4DFC0883B910509F0EAC0C2C0809172051D
:205B20008093BB00CFC09091990580919A05981768F490919905E92FF0E0E758FA4F80815E
:205B40008093BB009F5F90939905BCC080917305882309F44BC085ED8093BC008091BC00F2
:205B600084FDFCCFC2C080E28093DE0585ED8093BC008091BC0084FDFCCFB7C080E38093B8
:205B8000DE0585ED8093BC008091BC0084FDFCCFACC088E38093DE059BC0809199059091D0
:205BA000BB00E82FF0E0E758FA4F90838F5F809399059091990580919A0582C080919905A9
:205BC0009091BB00E82FF0E0E758FA4F90838F5F8093990580917305882341F085ED8093DE
:205BE000BC008091BC0084FDFCCF7FC081E08093740584EA6EC085ED8093BC008091BC00FA
:205C000084FDFCCF72C083E0809371051092DD0559C08091DD05803208F056C08091DD05D7
:205C20009091BB00E82FF0E0E354FA4F90838F5F8093DD0547C08091DD05803230F4E091EA
:205C4000DD05F0E0E354FA4F108285ED8093BC008091BC0084FDFCCF109271056091DD053B
:205C6000E0917705F09178058DEB95E070E009951092DD052DC084E0809371051092BB059E
:205C80001092BC05E0917505F091760509958091BC05882329F481E08093BC0510929B050B
:205CA0009091BB05E92FF0E0E556FA4F80818093BB009F5F9093BB059091BB058091BC0534
:205CC000981710F485EC01C085E88093BC000FC085EC8093BC0009C01092DE0585ED8093C1
:205CE000BC008091BC0084FDFCCF10927105FF91EF91BF91AF919F918F917F916F915F91C7
:205D00004F913F912F910F900FBE0F901F9018951092710581E0809373051092740582E12A
:205D200061E00E94843383E161E00E948433E9EBF0E080818E7F808380818D7F808388E49A
:205D40008093B80085E48093BC000895F999FECF72BD61BDF89A80B50895F999FECF1FBA5B
:205D600072BD61BD40BD0FB6F894FA9AF99A0FBE08950F931F93CF93DF93FC01738D7695C7
:205D80007170A685B7859585772329F08C91892309F454C004C08C91892309F04FC0838973
:205DA000948920E001972FEF8F3F9207D9F7C589D689A685B785158560E031E040E050E08A
:205DC00000E0CE01202F01972FEF8F3F9207D9F78C91812311F0632B03C0832F8095682373
:205DE000330F4F5F5F4F4830510559F78789908D20E001972FEF8F3F9207D9F77111609556
:205E0000809122062091230690E001968F73907030E08217930779F0E0912206F0E0EE5112
:205E2000FA4F60838091220690E001968F7390708093220603C0838D8160838FDF91CF9123
:205E40001F910F9108951F920F920FB60F9211242F933F934F935F936F937F938F939F9398
:205E6000AF93BF93EF93FF938091E0059091E105009711F00E94B92EFF91EF91BF91AF91BC
:205E80009F918F917F916F915F914F913F912F910F900FBE0F901F9018951F920F920FB6C4
:205EA0000F9211242F933F934F935F936F937F938F939F93AF93BF93EF93FF938091E0059E
:205EC0009091E105009711F00E94B92EFF91EF91BF91AF919F918F917F916F915F914F91CA
:205EE0003F912F910F900FBE0F901F9018951F920F920FB60F9211242F933F934F935F9356
:205F00006F937F938F939F93AF93BF93EF93FF938091E0059091E105009711F00E94B92E53
:205F2000FF91EF91BF91AF919F918F917F916F915F914F913F912F910F900FBE0F901F9047
:205F40001895CF92DF92EF92FF920F931F93CF93DF93EC017A018B011A8E198E188E1F8AF6
:205F60001E8A1D8A1C8A1B8A20E030E06901CC0CDD1CC20ED31EB601660F771F660F771FAE
:205F8000AB0146515F4FFA0185919591A591B4918E159F05A007B107E9F4FB01E251FF4F5E
:205FA000859194919C8B8B8BFB01E051FF4F859194919E8B8D8BFB01EE50FF4F85919491AF
:205FC000988F8F8BFB01EC50FF4F859194919A8F898F06C02F5F3F4F2D30310509F0C6CF7B
:205FE0008F89988D892B09F449C04C85463108F03DC090916800483010F484E005C04E30C1
:2060000010F082E001C081E0892B80936800483028F4EDE6F0E0ADE6B0E00BC04E3028F012
:20602000ECE6F0E0ACE6B0E004C0EBE6F0E0ABE6B0E05081483040F481E090E002C0880F6F
:20604000991F4A95E2F710C0242F30E04E3018F42850304002C02E50304081E090E002C0E8
:20606000880F991F2A95E2F7852B8C93898D9A8D20E001972FEF8F3F9207D9F78091E0054A
:206080009091E1058C179D0781F08B8D8E7F8B8F9FB7F894109222068091220680932306E1
:2060A000D093E105C093E0059FBFDF91CF911F910F91FF90EF90DF90CF900895FC014485A2
:2060C000463180F5483028F4EDE6F0E0ADE6B0E00BC04E3028F4EBE6F0E0ABE6B0E004C08F
:2060E000ECE6F0E0ACE6B0E05081483040F481E090E002C0880F991F4A95E2F710C0242FA2
:2061000030E04E3018F42850304002C02E50304081E090E002C0880F991F2A95E2F78095BE
:2061200085238C930895FC018BE491E091838083CF010E945E3008952091E0053091E1052D
:206140002817390731F49091230680912206981719F42FEF3FEF0FC0E0912306F0E0EE5198
:20616000FA4F20818091230690E001968F7390708093230630E0C90108952091E0053091E8
:20618000E1052817390719F020E030E00EC0809122062091230690E0805C9F4F821B91092F
:2061A00060E470E00E94A3389C01C90108950F931F93DC0159968D919C915A97892B49F47D
:2061C00081E090E013969C938E93129720E030E097C00FB7F8945B968C915B975196ED912E
:2061E000FC91529750962C91509781FF8DC08081822B808359968D919C915A97059620E05B
:2062000001972FEF8F3F9207D9F75B968C915B9781FF35C031E040E050E070E010E0832FC9
:2062200090E0862397235196ED91FC91529750962C915097892B29F08081209528232083B5
:2062400003C08081822B808359968D919C915A97212F01972FEF8F3F9207D9F7330F4F5F72
:206260005F4F48305105D9F65196ED91FC915297908150968C9150978095892333C031E038
:2062800040E050E070E010E0832F90E0862397235196ED91FC91529750962C915097892BD0
:2062A00021F08081822B808304C0808120952823208359968D919C915A97212F01972FEF83
:2062C0008F3F9207D9F7330F4F5F5F4F48305105D9F65196ED91FC915297808150969C915D
:2062E0005097892B80830FBF59968D919C915A9720E001972FEF8F3F9207D9F721E030E009
:20630000C9011F910F910895808120952823208371CF2091E0053091E1052817390749F4E9
:206320009FB7F8941092220680912206809323069FBF08952091E0053091E1052817390785
:2063400031F49091230680912206981719F42FEF3FEF0AC0E0912306F0E0EE51FA4F8081D0
:20636000282F332727FD3095C90108951F93CF93DF93EC01162F862F60E00E9445338B8D3D
:2063800081FD04C0812F61E00E9484331C87212F30E0C90188549E4FFC0184918D872C5534
:2063A0003E4FF9016491E62FF0E0EE0FFF1FE656FE4F859194919F878E87DF91CF911F91E2
:2063C00008951F93CF93DF93EC01162F862F61E00E94453360E08B8D81FF61E0812F0E94ED
:2063E0008433212F30E0C90188549E4FFC018491888B2C553E4FF9016491E62FF0E0EE0FEF
:20640000FF1FE057FE4F859194919A8B898BDF91CF911F910895FF920F931F938C01F62EB3
:20642000FC011382128288EE93E0A0E0B0E084839583A683B7838BE491E091838083148A26
:20644000138A168A158A108E178A128E118E838D2170220F8C7F822B838FC801642F0E9448
:20646000E131C8016F2D0E94B6311F910F91FF9008951F920F920FB60F9211242F933F931F
:206480008F939F93AF93BF938091280690912906A0912A06B0912B0630912C060196A11D6A
:2064A000B11D232F2D5F2D3720F02D570196A11DB11D20932C068093280690932906A0936A
:2064C0002A06B0932B068091240690912506A0912606B09127060196A11DB11D8093240666
:2064E00090932506A0932606B0932706BF91AF919F918F913F912F910F900FBE0F901F9055
:2065000018958FB7F894209128063091290640912A0650912B068FBFB901CA0108959B010E
:20652000AC017FB7F8948091240690912506A0912606B091270666B5A89B05C06F3F19F0C0
:206540000196A11DB11D7FBFBA2FA92F982F8827860F911DA11DB11D62E0880F991FAA1F7A
:20656000BB1F6A95D1F7BC012DC0FFB7F8948091240690912506A0912606B0912706E6B5A1
:20658000A89B05C0EF3F19F00196A11DB11DFFBFBA2FA92F982F88278E0F911DA11DB11DCD
:2065A000E2E0880F991FAA1FBB1FEA95D1F7861B970B885E9340C8F2215030404040504039
:2065C00068517C4F211531054105510571F60895789484B5826084BD84B5816084BD85B52E
:2065E000826085BD85B5816085BDEEE6F0E0808181608083E1E8F0E0108280818260808380
:20660000808181608083E0E8F0E0808181608083E1EBF0E0808184608083E0EBF0E08081F8
:2066200081608083EAE7F0E080818460808380818260808380818160808380818068808336
:206640001092C1000895982F8E3008F09E509770809125018295880F880F807C892B809389
:206660007C0080917A00806480937A0080917A0086FDFCCF2091780040917900942F80E033
:2066800030E0282B392BC9010895CF93DF93482F50E0CA0188549E4FFC0134914C555E4FAD
:2066A000FA018491882369F190E0880F991FFC01EA57FE4FA591B491FC01E057FE4FC59129
:2066C000D491662351F42FB7F8948C91932F909589238C93888189230BC0623061F42FB7F9
:2066E000F8948C91932F909589238C938881832B88832FBF06C09FB7F8948C91832B8C93FD
:206700009FBFDF91CF910895482F50E0CA0184539E4FFC012491CA0188549E4FFC01949110
:206720004C555E4FFA013491332309F440C0222351F1233071F0243028F42130A1F0223019
:2067400011F514C02630B1F02730C1F02430D9F404C0809180008F7703C0809180008F7D84
:206760008093800010C084B58F7702C084B58F7D84BD09C08091B0008F7703C08091B0001B
:206780008F7D8093B000E32FF0E0EE0FFF1FE057FE4FA591B4912FB7F894662321F48C9101
:2067A0009095892302C08C91892B8C932FBF0895682F70E0CB0184539E4FFC012491CB01D6
:2067C00088549E4FFC0144916C557E4FFB019491992319F420E030E03CC0222351F12330C0
:2067E00071F0243028F42130A1F0223011F514C02630B1F02730C1F02430D9F404C08091C5
:2068000080008F7703C0809180008F7D8093800010C084B58F7702C084B58F7D84BD09C0DF
:206820008091B0008F7703C08091B0008F7D8093B000892F90E0880F991F86569E4FFC0101
:20684000A591B4918C9120E030E0842311F021E030E0C90108950895CF93DF930E94E83243
:206860000E942B340E94AB26C0E0D0E00E9412262097E1F30E940000F9CFCF92DF92EF9232
:20688000FF920F931F93CF93DF937C016B018A01C0E0D0E00FC0D6016D916D01D701ED9113
:2068A000FC910190F081E02DC7010995C80FD91F015010400115110571F7CE01DF91CF9133
:2068C0001F910F91FF90EF90DF90CF900895DC01ED91FC910190F081E02D099508952F92FC
:2068E0003F924F925F926F927F928F929F92AF92BF92CF92DF92EF92FF920F931F93DF9355
:20690000CF93CDB7DEB73B014C0119012A016D897E898F89988D6A197B098C099D09621A36
:20692000730A840A950AA40193010E946438E218F30804091509A80197010E94D8382A0DEC
