:200000000C9462000C94B5030C948E030C948A000C948A000C948A000C948A000C948A0083
:200020000C948A000C948A000C948A000C948A000C948A000C948A000C948A000C948A0070
:200040000C94EC020C948A000C945C030C9436030C948A000C948A000C948A000C948A0068
:200060000C948A000C948A0000000000240027002A0000000000250028002B00000000003F
:20008000230026002900040404040404040402020202020203030303030301020408102071
:2000A0004080010204081020010204081020000000080002010000030407000000000000E9
:2000C0000000290511241FBECFEFD8E0DEBFCDBF21E0A8E2B1E001C01D92A73DB207E1F740
:2000E00011E0A0E0B1E0E6EAFFE002C005900D92A832B107D9F710E0C2E6D0E004C0219733
:20010000FE010E94D905C136D107C9F70E94DC030C94D1070C940000AF92BF92CF92DF92D4
:20012000EF92FF920F931F93CF93DF936C017B018B01040F151FEB015E01AE18BF08C0171A
:20014000D10759F06991D601ED91FC910190F081E02DC6010995892B79F7C501DF91CF9174
:200160001F910F91FF90EF90DF90CF90BF90AF900895FC01538D448D252F30E0842F90E0F3
:20018000821B930B541710F0CF96089501970895FC01918D828D981761F0A28DAE0FBF2F7E
:2001A000B11D5D968C91928D9F5F9F73928F90E008958FEF9FEF0895FC01918D828D981782
:2001C00031F0828DE80FF11D858D90E008958FEF9FEF0895FC01918D228D892F90E0805C54
:2001E0009F4F821B91098F739927089586E391E00E94EA0021E0892B09F420E0822F089515
:2002000080E090E0892B29F00E94F60081110C9400000895FC01A48DA80FB92FB11DA35A42
:20022000BF4F2C91848D90E001968F739927848FA689B7892C93A089B1898C918370806481
:200240008C93938D848D981306C00288F389E02D80818F7D80830895EF92FF920F931F93B7
:20026000CF93DF93EC0181E0888F9B8D8C8D98131AC0E889F989808185FF15C09FB7F89450
:20028000EE89FF896083E889F98980818370806480839FBF81E090E0DF91CF911F910F915F
:2002A000FF90EF900895F62E0B8D10E00F5F1F4F0F731127E02E8C8D8E110CC00FB607FCF7
:2002C000FACFE889F989808185FFF5CFCE010E940A01F1CFEB8DEC0FFD2FF11DE35AFF4FA5
:2002E000F0829FB7F8940B8FEA89FB8980818062CFCFCF93DF93EC01888D8823B9F0AA893B
:20030000BB89E889F9898C9185FD03C0808186FD0DC00FB607FCF7CF8C9185FFF2CF808102
:2003200085FFEDCFCE010E940A01E9CFDF91CF910895833081F028F4813099F08230A9F017
:2003400008958730A9F08830C9F08430B1F4809180008F7D03C0809180008F77809380005C
:20036000089584B58F7784BD089584B58F7DFBCF8091B0008F778093B00008958091B000CC
:200380008F7DF9CFCF93DF93282F30E0F901E255FF4F8491F901E656FF4FD491F901EA5796
:2003A000FF4FC491CC23A1F081110E949901EC2FF0E0EE0FFF1FE458FF4FA591B491EC91C4
:2003C000ED2381E090E009F480E0DF91CF91089580E090E0FACF80912B01880F880F80935B
:2003E0002B0183E00E94C20120912B01880F991F280F20932B0185E00E94C20190912B01B0
:20040000890F80932B0108951F93CF93DF93282F30E0F901E255FF4F8491F901E656FF4F63
:20042000D491F901EA57FF4FC491CC23A9F0162F81110E949901EC2FF0E0EE0FFF1FEE5892
:20044000FF4FA591B4918FB7F894EC91111108C0D095DE23DC938FBFDF91CF911F9108955A
:20046000DE2BF8CFCF93DF9390E0FC01E656FF4F24918A579F4FFC0184918823D1F090E06F
:20048000880F991FFC01E859FF4FA591B491FC01EE58FF4FC591D49161110EC09FB7F89498
:2004A0008C91E22FE0958E238C932881E223E8839FBFDF91CF9108958FB7F894EC91E22B89
:2004C000EC938FBFF6CF0895FC0101900020E9F73197AF01481B590BBC0186E391E00C94E9
:2004E0008C008F929F92AF92BF92CF92DF92EF92FF920F931F93CF93DF93CDB7DEB7A1972F
:200500000FB6F894DEBF0FBECDBF6B017C01F7FE41C06DE286E391E00E942C018C012227E7
:200520003327A9012C193D094E095F0919A2CE0181967C019AE0892E912CA12CB12CCA01EC
:20054000B901A50194010E94B705605DF70162937F01211531054105510589F790E080E0C6
:20056000309719F0CF010E946402800F911FA1960FB6F894DEBF0FBECDBFDF91CF911F9196
:200580000F91FF90EF90DF90CF90BF90AF909F908F900895AC019B0119A28E010F5D1F4FF9
:2005A0008AE0C82ED12CE12CF12CCA01B901A70196010E94B705605DF80162938F01211521
:2005C00031054105510589F790E080E0309779F2CF010E946402CBCF1F920F920FB60F929D
:2005E00011242F933F938F939F93AF93BF938091320190913301A0913401B0913501309113
:20060000310123E0230F2D3758F50196A11DB11D209331018093320190933301A0933401B5
:20062000B093350180912D0190912E01A0912F01B09130010196A11DB11D80932D01909358
:200640002E01A0932F01B0933001BF91AF919F918F913F912F910F900FBE0F901F901895BD
:2006600026E8230F0296A11DB11DD2CF1F920F920FB60F9211242F933F934F935F936F931E
:200680007F938F939F93AF93BF93EF93FF9386E391E00E940A01FF91EF91BF91AF919F91F5
:2006A0008F917F916F915F914F913F912F910F900FBE0F901F9018951F920F920FB60F928B
:2006C00011242F938F939F93EF93FF93E0914601F09147018081E0914C01F0914D0182FD2D
:2006E0001BC0908180914F018F5F8F7320915001821741F0E0914F01F0E0EA5CFE4F958FA9
:2007000080934F01FF91EF919F918F912F910F900FBE0F901F9018958081F4CF1F920F92D9
:200720000FB60F9211242F933F934F935F936F937F938F939F93AF93BF93EF93FF93E09135
:200740000201F09103010995FF91EF91BF91AF919F918F917F916F915F914F913F912F9113
:200760000F900FBE0F901F9018951F920F920FB60F9211242F933F934F935F936F937F93A9
:200780008F939F93AF93BF93EF93FF93E0910001F09101010995FF91EF91BF91AF919F91FA
:2007A0008F917F916F915F914F913F912F910F900FBE0F901F901895CF93DF93CDB7DEB755
:2007C00029970FB6F894DEBF0FBECDBF789484B5826084BD84B5816084BD85B5826085BDF1
:2007E00085B5816085BD80916E00816080936E00109281008091810082608093810080917F
:200800008100816080938100809180008160809380008091B10084608093B1008091B000B2
:2008200081608093B00080917A00846080937A0080917A00826080937A0080917A008160B2
:2008400080937A0080917A00806880937A001092C10060E083E00E94320261E083E00E94E9
:20086000040260E085E00E94320261E085E00E94040261E08DE00E9432028BEE91E0909318
:2008800003018093020180916900837F846080936900E99AE0914601F091470182E08083F9
:2008A000E0914201F09143011082E0914401F09145018FEC808310924E01E0914A01F09104
:2008C0004B0186E08083E0914801F0914901808180618083E0914801F0914901808188608B
:2008E0008083E0914801F0914901808180688083E0914801F091490180818F7D80836091FE
:20090000290170912A01072E000C880B990B0E9471028CE191E00E946402CE0101966C013B
:200920009924939480E0A82E80E0B82E80912B0190912C01981709F453C080912B0142E0AE
:20094000B60190E00E945605F60101900020E9F731978F010C191D09B8016F5F7F4F90E083
:2009600080E00E9404077C01009799F0FC011082B6010E94CA073801F8E06F16710464F4B1
:2009800060E070E0CB010E9471028FEF681A780AF3CF10E000E0EFCFA801B70186E391E0D9
:2009A0000E948C0080912B018F7080932B01833061F138F5823009F440C0809128018925C5
:2009C0008093280180912B0180932C018CE191E00E946402E114F10419F0C7010E947B069A
:2009E000609128018DE00E940402A114B10409F49DCF0E94F600882309F498CF0E940000AC
:200A000095CF8630D1F08730C1F68091290190912A01019690932A01809329018FE191E003
:200A20000E9464026091290170912A01072E000C880B990B0E947102C0CF809129019091EF
:200A40002A01019790932A018093290183E291E0E7CFE6E3F1E01382128288EE93E0A0E090
:200A6000B0E084839583A683B7838EE091E09183808385EC90E09587848784EC90E0978768
:200A8000868780EC90E0918B808B81EC90E0938B828B82EC90E0958B848B86EC90E0978B2D
:200AA000868B118E128E138E148E0895BB27FB015527AA27880F991FAA1FA41710F0A41B49
:200AC00083955051B9F7A05DAA3308F0A95DA193009779F7B111B1931192CB010C94700510
:200AE000DC01FC01672F71917723E1F7329704C07C916D9370836291AE17BF07C8F30895AF
:200B00002F923F924F925F926F927F928F929F92AF92BF92CF92DF92EF92FF920F931F9343
:200B2000CF93DF93CDB7DEB7CA1BDB0B0FB6F894DEBF0FBECDBF09942A88398848885F84F3
:200B40006E847D848C849B84AA84B984C884DF80EE80FD800C811B81AA81B981CE0FD11D19
:200B60000FB6F894DEBF0FBECDBFED010895A1E21A2EAA1BBB1BFD010DC0AA1FBB1FEE1FC2
:200B8000FF1FA217B307E407F50720F0A21BB30BE40BF50B661F771F881F991F1A9469F7DB
:200BA00060957095809590959B01AC01BD01CF010895EE0FFF1F0590F491E02D09940F930C
:200BC0001F93CF93DF938230910510F482E090E0E091D501F091D60130E020E0B0E0A0E0B2
:200BE000309799F42115310509F44AC0281B390B24303105D8F58A819B816115710589F1C3
:200C0000FB0193838283FE0111C0408151810281138148175907E0F04817590799F41097C1
:200C200061F012960C93129713961C933296CF01DF91CF911F910F9108950093D5011093BA
:200C4000D601F4CF2115310551F04217530738F0A901DB019A01BD01DF01F801C1CFEF013A
:200C6000F9CF9093D6018093D501CDCFFE01E20FF31F819391932250310939832883D7CF3A
:200C80002091D3013091D401232B41F420910601309107013093D4012093D3012091040160
:200CA000309105012115310541F42DB73EB74091080150910901241B350BE091D301F091E9
:200CC000D401E217F307A0F42E1B3F0B2817390778F0AC014E5F5F4F2417350748F04E0F2A
:200CE0005F1F5093D4014093D301819391939FCFF0E0E0E09CCFCF93DF930097E9F0FC0135
:200D0000329713821282A091D501B091D601ED0130E020E01097A1F420813181820F931FF2
:200D20002091D3013091D4012817390709F061C0F093D401E093D301DF91CF910895EA0108
:200D4000CE17DF07E8F54A815B819E0141155105B1F7E901FB83EA8349915991C40FD51FF1
:200D6000EC17FD0761F4808191810296840F951FE90199838883828193819B838A83F0E002
:200D8000E0E012968D919C9113970097B9F52D913C911197CD010296820F931F2091D30150
:200DA0003091D4012817390739F6309751F51092D6011092D501B093D401A093D301BCCF47
:200DC000D383C28340815181840F951FC817D90761F44E5F5F4F88819981480F591F518369
:200DE00040838A819B81938382832115310509F0B0CFF093D601E093D5019ECFFD01DC011F
:200E0000C0CF13821282D7CFB0E0A0E0EAE0F7E00C9482058C01009751F4CB010E94DF05E1
:200E20008C01C801CDB7DEB7E0E10C949E05FC01E60FF71F9C0122503109E217F30708F4FF
:200E40009DC0D901CD91DC911197C617D70798F0C530D10530F3CE0104978617970708F317
:200E6000C61BD70B2297C193D1936D937C93CF010E947B06D6CF5B01AC1ABD0A4C018C0EC7
:200E80009D1EA091D501B091D601512C412CF12CE12C109731F58091D3019091D40188151F
:200EA000990509F05CC04616570608F058C08091040190910501009741F48DB79EB7409143
:200EC000080150910901841B950BE817F90708F055C0F093D401E093D301F9017183608363
:200EE000A0CF8D919C91119712966C90129713967C901397A815B90559F56C0142E0C40EBA
:200F0000D11CCA14DB0420F1AC014A195B09DA011296159780F06282738251834083D901B9
:200F20006D937C93E114F10471F0D7011396FC93EE93129776CF22968C0F9D1FF9019183BB
:200F40008083F301EFCFF093D601E093D50169CF4816590608F42C017D01D3019ACFCB0194
:200F60000E94DF057C01009749F0AE01B8010E94C107C8010E947B06870153CF10E000E066
:200F800050CFFB01DC0102C001900D9241505040D8F70895FB01DC0101900D920020E1F7D9
:200FA0000895F894FFCF630263020000D7018000000000002C018C00B9007901EA00C8007A
:200FC000DC000D0A00202B2000202D200000FFFFFFFFFFFFFFFFFFFFFFFFFFFFFFFFFFFF58
:200FE000FFFFFFFFFFFFFFFFFFFFFFFFFFFFFFFFFFFFFFFFFFFFFFFFFFFFFFFFFFFFFFFF11
:2010000000202B2000202D2000212B2000212D200000FFFFFFFFFFFFFFFFFFFFFFFFFFFF2C
:20102000FFFFFFFFFFFFFFFFFFFFFFFFFFFFFFFFFFFFFFFFFFFFFFFFFFFFFFFFFFFFFFFFD0
:20104000FFFFFFFFFFFFFFFFFFFFFFFFFFFFFFFFFFFFFFFFFFFFFFFFFFFFFFFFFFFFFFFFB0
:20106000FFFFFFFFFFFFFFFFFFFFFFFFFFFFFFFFFFFFFFFFFFFFFFFFFFFFFFFFFFFFFFFF90
:2010800008F499C002501109061B170B019311936D937C93CF010E9482078DC05B01A01AA7
:2010A000B10A4C01800E911EA091E901B091EA0140E050E0E12CF12C109709F44AC0A815BF
:2010C000B905D1F56D907C901197630182E0C80ED11CCA14DB0480F1A3014A195B096A014E
:2010E00082E0C80ED11C1296BC9012971396AC91B5E0CB16D10440F0B282A38351834083DC
:20110000D9016D937C930AC00E5F1F4FC301800F911FF90191838083EB2DFA2FE114F10402
:2011200031F0D7011396FC93EE93129744C0F093EA01E093E9013FC08D919C911197481734
:20114000590708F4AC017D0112960D90BC91A02DB3CF8091E7019091E80188159905E1F414
:2011600046175707C8F48091080190910901009741F48DB79EB740910C0150910D01841BE2
:20118000950BE817F907C8F4F093E801E093E701F901718360830FC0CB010E94ED067C01AF
:2011A000009759F0A801BE010E94E908CE010E948207C70104C0CE0102C080E090E0CDB7E9
:2011C000DEB7EEE00C94A80681E090E0F8940C94F908FB01DC0102C001900D924150504074
:2011E000D8F70895FB01DC0101900D920020E1F70895F894FFCFFF035402540210000000CD
:20120000EB0180000000000023018C00BB006A01EC00CA00DE003F065B4F666D7D077F6FC4
:201220000D0A006E65787420737465702000FFFFFFFFFFFFFFFFFFFFFFFFFFFFFFFFFFFFEE
:20124000FFFFFFFFFFFFFFFFFFFFFFFFFFFFFFFFFFFFFFFFFFFFFFFFFFFFFFFFFFFFFFFFAE
:20126000FFFFFFFFFFFFFFFFFFFFFFFFFFFFFFFFFFFFFFFFFFFFFFFFFFFFFFFFFFFFFFFF8E
:20128000FFFFFFFFFFFFFFFFFFFFFFFFFFFFFFFFFFFFFFFFFFFFFFFFFFFFFFFFFFFFFFFF6E
:2012A000FFFFFFFFFFFFFFFFFFFFFFFFFFFFFFFFFFFFFFFFFFFFFFFFFFFFFFFFFFFFFFFF4E
:207E0000112484B714BE81FFF0D085E08093810082E08093C00088E18093C10086E08093FC
:207E2000C20080E18093C4008EE0C9D0259A86E020E33CEF91E0309385002093840096BBAD
:207E4000B09BFECF1D9AA8958150A9F7CC24DD2488248394B5E0AB2EA1E19A2EF3E0BF2E79
:207E6000A2D0813461F49FD0082FAFD0023811F0013811F484E001C083E08DD089C0823404
:207E800011F484E103C0853419F485E0A6D080C0853579F488D0E82EFF2485D0082F10E0A0
:207EA000102F00270E291F29000F111F8ED068016FC0863521F484E090D080E0DECF84364D
:207EC00009F040C070D06FD0082F6DD080E0C81680E7D80618F4F601B7BEE895C0E0D1E0ED
:207EE00062D089930C17E1F7F0E0CF16F0E7DF0618F0F601B7BEE89568D007B600FCFDCF1A
:207F0000A601A0E0B1E02C9130E011968C91119790E0982F8827822B932B1296FA010C016F
:207F200087BEE89511244E5F5F4FF1E0A038BF0751F7F601A7BEE89507B600FCFDCF97BE85
:207F4000E89526C08437B1F42ED02DD0F82E2BD03CD0F601EF2C8F010F5F1F4F84911BD0B8
:207F6000EA94F801C1F70894C11CD11CFA94CF0CD11C0EC0853739F428D08EE10CD085E9AE
:207F80000AD08FE07ACF813511F488E018D01DD080E101D065CF982F8091C00085FFFCCF0A
:207FA0009093C60008958091C00087FFFCCF8091C00084FD01C0A8958091C6000895E0E68F
:207FC000F0E098E1908380830895EDDF803219F088E0F5DFFFCF84E1DECF1F93182FE3DF47
:207FE0001150E9F7F2DF1F91089580E0E8DFEE27FF270994FFFFFFFFFFFFFFFFFFFF040425
:00000001FF
