:200000000C9462000C94B5030C948E030C948A000C948A000C948A000C948A000C948A0083
:200020000C948A000C948A000C948A000C948A000C948A000C948A000C948A000C948A0070
:200040000C94EC020C948A000C945C030C9436030C948A000C948A000C948A000C948A0068
:200060000C948A000C948A0000000000240027002A0000000000250028002B00000000003F
:20008000230026002900040404040404040402020202020203030303030301020408102071
:2000A0004080010204081020010204081020000000080002010000030407000000000000E9
:2000C0000000290511241FBECFEFD8E0DEBFCDBF21E0A8E2B1E001C01D92A73DB207E1F740
:2000E00011E0A0E0B1E0E6EAFFE002C005900D92A832B107D9F710E0C2E6D0E004C0219733
:20010000FE010E94D905C136D107C9F70E94DC030C94D1070C940000AF92BF92CF92DF92D4
:20012000EF92FF920F931F93CF93DF936C017B018B01040F151FEB015E01AE18BF08C0171A
:20014000D10759F06991D601ED91FC910190F081E02DC6010995892B79F7C501DF91CF9174
:200160001F910F91FF90EF90DF90CF90BF90AF900895FC01538D448D252F30E0842F90E0F3
:20018000821B930B541710F0CF96089501970895FC01918D828D981761F0A28DAE0FBF2F7E
:2001A000B11D5D968C91928D9F5F9F73928F90E008958FEF9FEF0895FC01918D828D981782
:2001C00031F0828DE80FF11D858D90E008958FEF9FEF0895FC01918D228D892F90E0805C54
:2001E0009F4F821B91098F739927089586E391E00E94EA0021E0892B09F420E0822F089515
:2002000080E090E0892B29F00E94F60081110C9400000895FC01A48DA80FB92FB11DA35A42
:20022000BF4F2C91848D90E001968F739927848FA689B7892C93A089B1898C918370806481
:200240008C93938D848D981306C00288F389E02D80818F7D80830895EF92FF920F931F93B7
:20026000CF93DF93EC0181E0888F9B8D8C8D98131AC0E889F989808185FF15C09FB7F89450
:20028000EE89FF896083E889F98980818370806480839FBF81E090E0DF91CF911F910F915F
:2002A000FF90EF900895F62E0B8D10E00F5F1F4F0F731127E02E8C8D8E110CC00FB607FCF7
:2002C000FACFE889F989808185FFF5CFCE010E940A01F1CFEB8DEC0FFD2FF11DE35AFF4FA5
:2002E000F0829FB7F8940B8FEA89FB8980818062CFCFCF93DF93EC01888D8823B9F0AA893B
:20030000BB89E889F9898C9185FD03C0808186FD0DC00FB607FCF7CF8C9185FFF2CF808102
:2003200085FFEDCFCE010E940A01E9CFDF91CF910895833081F028F4813099F08230A9F017
:2003400008958730A9F08830C9F08430B1F4809180008F7D03C0809180008F77809380005C
:20036000089584B58F7784BD089584B58F7DFBCF8091B0008F778093B00008958091B000CC
:200380008F7DF9CFCF93DF93282F30E0F901E255FF4F8491F901E656FF4FD491F901EA5796
:2003A000FF4FC491CC23A1F081110E949901EC2FF0E0EE0FFF1FE458FF4FA591B491EC91C4
:2003C000ED2381E090E009F480E0DF91CF91089580E090E0FACF80912B01880F880F80935B
:2003E0002B0183E00E94C20120912B01880F991F280F20932B0185E00E94C20190912B01B0
:00000001FF
