:100000000C945D000C9485000C9485000C94850084
:100010000C9485000C9485000C9485000C9485004C
:100020000C9485000C9485000C9485000C9485003C
:100030000C9485000C9485000C9485000C9485002C
:100040000C94F6000C9485000C9401030C9444036A
:100050000C9485000C9485000C9485000C9485000C
:100060000C9485000C94850000000007000201003C
:100070000003040600000000000000000102040864
:100080001020408001020408102001020408102002
:10009000040404040404040402020202020203032E
:1000A0000303030300000000250028002B000000CC
:1000B0000000240027002A00030411241FBECFEFF4
:1000C000D8E0DEBFCDBF11E0A0E0B1E0E0E2F9E0B2
:1000D00002C005900D92A632B107D9F721E0A6E241
:1000E000B1E001C01D92AB3DB207E1F710E0CDE5F4
:1000F000D0E004C02197FE010E948804CC35D107CE
:10010000C9F70E945A020C948E040C940000EF92DE
:10011000FF920F931F93CF93DF93C0E0D1E000E0F5
:1001200010E080911201909113010817190764F4EF
:1001300061E088810E94EF0160E0888122960E9440
:100140002B020F5F1F4FEDCF40E855E260E070E0FB
:1001500081E391E0DF91CF911F910F91FF90EF909C
:100160000C947F030F931F93CF93DF93009126018D
:1001700010912701E801CC0FDD1FC050DF4F8091A7
:100180001401909115010817190744F488812296EB
:1001900060E00E942B020F5F1F4FF1CF68EE73E00B
:1001A00080E090E00E9465010091260110912701F6
:1001B000E801CC0FDD1FC050DF4F809114019091FA
:1001C00015010817190744F48881229661E00E94FE
:1001D0002B020F5F1F4FF1CF68EE73E080E090E0DD
:1001E000DF91CF911F910F910C9465011F920F9297
:1001F0000FB60F9211242F933F938F939F93AF933A
:10020000BF938091290190912A01A0912B01B09177
:100210002C013091280123E0230F2D3720F4019683
:10022000A11DB11D05C026E8230F0296A11DB11D19
:10023000209328018093290190932A01A0932B01F8
:10024000B0932C0180912D0190912E01A0912F014E
:10025000B09130010196A11DB11D80932D019093A5
:100260002E01A0932F01B0933001BF91AF919F91C8
:100270008F913F912F910F900FBE0F901F90189567
:100280003FB7F89480912D0190912E01A0912F01FC
:10029000B091300126B5A89B05C02F3F19F00196FB
:1002A000A11DB11D3FBFBA2FA92F982F8827820FFC
:1002B000911DA11DB11DBC01CD0142E0660F771F4C
:1002C000881F991F4A95D1F70895CF92DF92EF9238
:1002D000FF92CF93DF936B017C010E944001EB0101
:1002E000C114D104E104F10479F00E9440016C1BB7
:1002F0007D0B683E7340A0F381E0C81AD108E10885
:10030000F108C851DC4FECCFDF91CF91FF90EF9017
:10031000DF90CF900895789484B5826084BD84B5D1
:10032000816084BD85B5826085BD85B5816085BDF0
:10033000EEE6F0E0808181608083E1E8F0E0108209
:10034000808182608083808181608083E0E8F0E04A
:10035000808181608083E1EBF0E080818460808334
:10036000E0EBF0E0808181608083EAE7F0E080816B
:1003700084608083808182608083808181608083CB
:100380008081806880831092C1000895833081F05D
:1003900028F4813099F08230A1F008958630A9F0D8
:1003A0008730B9F08430D1F4809180008F7D03C014
:1003B000809180008F7780938000089584B58F7737
:1003C00002C084B58F7D84BD08958091B0008F7781
:1003D00003C08091B0008F7D8093B0000895CF93CB
:1003E000DF9390E0FC01E458FF4F2491FC01E057BB
:1003F000FF4F8491882361F190E0880F991FFC01E1
:10040000E255FF4FC591D491FC01EC55FF4FA591EA
:10041000B491611109C09FB7F89488812095822317
:100420008883EC912E230BC0623061F49FB7F8945F
:100430008881322F309583238883EC912E2B2C9347
:100440009FBF06C08FB7F894E8812E2B28838FBFFB
:10045000DF91CF9108951F93CF93DF93282F30E042
:10046000F901E859FF4F8491F901E458FF4FD49105
:10047000F901E057FF4FC491CC23C1F0162F811131
:100480000E94C601EC2FF0E0EE0FFF1FEC55FF4F6E
:10049000A591B4919FB7F894111104C08C91D09597
:1004A000D82302C0EC91DE2BDC939FBFDF91CF916C
:1004B0001F9108950E948B010E948700CBE3D3E037
:1004C0000E94B2002097E1F30E943B03F9CFFC01A8
:1004D00024853585F901E05CFF4F8081918132965A
:1004E00020813181821B930B8F7399270895DC0142
:1004F0001C96ED91FC911D97DF01A05CBF4F2D91E3
:100500003C91119712968D919C911197281739075C
:1005100039F08D919C91E80FF91F808190E008954A
:100520008FEF9FEF0895FC01A485B585FD01E05C88
:10053000FF4F2081318132968081918128173907C0
:1005400079F080819181A80FB91F8C912081318130
:100550002F5F3F4F2F7333273183208390E008951F
:100560008FEF9FEF0895FC0181A1882329F0A489D2
:10057000B5898C9186FFFBCF11A208950F931F932D
:10058000CF93DF93FC01A685B7858D01005C1F4FDB
:10059000E8018881998101968F739927AD014E5B9F
:1005A0005F4FEA012881398128173907D1F3E80123
:1005B00028813981A20FB31F6C93A685B785A05CF3
:1005C000BF4F11969C938E93A689B7892C9181E099
:1005D00090E0078C02C0880F991F0A94E2F7822BE3
:1005E0008C9381E081A30488F589E02D808180646B
:1005F000808381E090E0DF91CF911F910F9108956A
:1006000008951F920F920FB60F9211242F934F93BC
:100610005F938F939F93EF93FF938091C00082FD30
:100620001CC02091C6008091D7019091D8014091C3
:10063000D9015091DA0101968F739927481759070C
:1006400071F0E091D701F091D801E956FE4F208377
:100650009093D8018093D70102C08091C600FF918A
:10066000EF919F918F915F914F912F910F900FBEBE
:100670000F901F90189581E391E00E946702892BEB
:1006800011F00C94000308951F920F920FB60F9271
:1006900011242F933F938F939F93EF93FF93209178
:1006A00093013091940180919501909196012817C2
:1006B000390731F48091C1008F7D8093C10014C04F
:1006C000E0919501F0919601ED5AFE4F20818091C5
:1006D00095019091960101968F73992790939601B9
:1006E000809395012093C600FF91EF919F918F9188
:1006F0003F912F910F900FBE0F901F901895CF92A2
:10070000DF92EF92FF92CF93DF93EC016A017B01BE
:100710004115514E6105710509F1EC89FD8981E0B2
:1007200090E008A002C0880F991F0A94E2F7808326
:1007300060E079E08DE390E0A70196010E946604F5
:10074000DA01C9010197A109B109B695A795979555
:1007500087959C01211580E13807A8F0EC89FD8977
:10076000108260E874E88EE190E0A70196010E9493
:100770006604DA01C9010197A109B109B695A795E7
:10078000979587959C01E889F9893083EA89FB89E7
:10079000208319A2EE89FF89408181E090E09C01CD
:1007A0000C8C02C0220F331F0A94E2F7242B208303
:1007B000EE89FF8940819C010D8C02C0220F331FFE
:1007C0000A94E2F7242B2083EE89FF8940819C0163
:1007D0000E8C02C0220F331F0A94E2F7242B2083D1
:1007E000EE89FF8920810F8C02C0880F991F0A941F
:1007F000E2F7809582238083DF91CF91FF90EF9085
:10080000DF90CF900895E1E3F1E01382128288EE49
:1008100093E0A0E0B0E084839583A683B7838AE168
:1008200091E09183808387E991E09587848783E5D0
:1008300091E09787868785EC90E0918B808B84ECA4
:1008400090E0938B828B80EC90E0958B848B81EC95
:1008500090E0978B868B82EC90E0918F808F86EC76
:1008600090E0938F828F84E0848F83E0858F87E090
:10087000868F85E0878F81E080A30895CF92DF92F5
:10088000EF92FF920F931F93CF93DF936C01EB01D5
:100890007B01E40EF51E00E010E0CE15DF0561F0EF
:1008A0006991D601ED91FC910190F081E02DC60196
:1008B0000995080F191FF1CFC801DF91CF911F9142
:1008C0000F91FF90EF90DF90CF900895A1E21A2E44
:1008D000AA1BBB1BFD010DC0AA1FBB1FEE1FFF1FE4
:1008E000A217B307E407F50720F0A21BB30BE40B34
:1008F000F50B661F771F881F991F1A9469F760957B
:100900007095809590959B01AC01BD01CF01089534
:10091000EE0FFF1F0590F491E02D0994F894FFCF9E
:10092000020003000400050006000700080009009B
:100930000D000900090000000000BE023E0467022D
:0609400093027702B302EE
:00000001FF
