:100000000C945D000C9485000C9485000C94850084
:100010000C9485000C9485000C9485000C9485004C
:100020000C9485000C9485000C9485000C9485003C
:100030000C9485000C9485000C9485000C9485002C
:100040000C94AB000C9485000C94E2030C942504F2
:100050000C9485000C9485000C9485000C9485000C
:100060000C9485000C94850000000007000201003C
:100070000003040600000000000000000102040864
:100080001020408001020408102001020408102002
:10009000040404040404040402020202020203032E
:1000A0000303030300000000250028002B000000CC
:1000B0000000240027002A00E40411241FBECFEF13
:1000C000D8E0DEBFCDBF11E0A0E0B1E0E2E9FAE0A8
:1000D00002C005900D92A231B107D9F721E0A2E14B
:1000E000B1E001C01D92A53CB207E1F710E0CDE5FB
:1000F000D0E004C02197FE010E944105CC35D10714
:10010000C9F70E942C020C9447050C94000061E092
:100110008DE00E94A40140E855E260E070E08BE1D0
:1001200091E00C94600460E08DE00E94E00160EDDD
:1001300077E080E090E00E941A0161E08DE00E948B
:10014000E00181E00E940F024AE050E0BC018BE137
:1001500091E00C9436031F920F920FB60F92112468
:100160002F933F938F939F93AF93BF9380911301EE
:1001700090911401A0911501B091160130911201D6
:1001800023E0230F2D3720F40196A11DB11D05C0DA
:1001900026E8230F0296A11DB11D20931201809322
:1001A000130190931401A0931501B093160180914F
:1001B000170190911801A0911901B0911A010196AF
:1001C000A11DB11D8093170190931801A0931901EF
:1001D000B0931A01BF91AF919F918F913F912F9151
:1001E0000F900FBE0F901F9018953FB7F894809115
:1001F000170190911801A0911901B0911A0126B52B
:10020000A89B05C02F3F19F00196A11DB11D3FBF4E
:10021000BA2FA92F982F8827820F911DA11DB11DDC
:10022000BC01CD0142E0660F771F881F991F4A95D8
:10023000D1F70895CF92DF92EF92FF92CF93DF93A1
:100240006B017C010E94F500EB01C114D104E104B3
:10025000F10479F00E94F5006C1B7D0B683E734041
:10026000A0F381E0C81AD108E108F108C851DC4FB9
:10027000ECCFDF91CF91FF90EF90DF90CF9008957A
:10028000789484B5826084BD84B5816084BD85B571
:10029000826085BD85B5816085BDEEE6F0E0808138
:1002A00081608083E1E8F0E0108280818260808359
:1002B000808181608083E0E8F0E0808181608083DC
:1002C000E1EBF0E0808184608083E0EBF0E080810E
:1002D00081608083EAE7F0E08081846080838081B0
:1002E0008260808380818160808380818068808358
:1002F0001092C1000895833081F028F4813099F084
:100300008230A1F008958630A9F08730B9F08430AA
:10031000D1F4809180008F7D03C0809180008F7721
:1003200080938000089584B58F7702C084B58F7D57
:1003300084BD08958091B0008F7703C08091B00094
:100340008F7D8093B0000895CF93DF9390E0FC0100
:10035000E458FF4F2491FC01E057FF4F849188231C
:1003600061F190E0880F991FFC01E255FF4FC591A4
:10037000D491FC01EC55FF4FA591B491611109C0D6
:100380009FB7F8948881209582238883EC912E234F
:100390000BC0623061F49FB7F8948881322F30959A
:1003A00083238883EC912E2B2C939FBF06C08FB79D
:1003B000F894E8812E2B28838FBFDF91CF91089589
:1003C0001F93CF93DF93282F30E0F901E859FF4FB7
:1003D0008491F901E458FF4FD491F901E057FF4FA0
:1003E000C491CC23C1F0162F81110E947B01EC2F08
:1003F000F0E0EE0FFF1FEC55FF4FA591B4919FB7B2
:10040000F894111104C08C91D095D82302C0EC91BE
:10041000DE2BDC939FBFDF91CF911F9108958E302B
:1004200008F08E502091000190E4299F9001112442
:100430008770822B80937C0080917A008064809307
:100440007A0080917A0086FDFCCF8091780020911F
:10045000790090E0922B08950E9440010E9487004D
:10046000CCE1D4E00E9493002097E1F30E941C04A9
:10047000F9CFCF92DF92EF92FF920F931F93CF931A
:10048000DF936C01EB017B01E40EF51E00E010E050
:10049000CE15DF0561F06991D601ED91FC910190D7
:1004A000F081E02DC6010995080F191FF1CFC80191
:1004B000DF91CF911F910F91FF90EF90DF90CF9040
:1004C00008956115710579F0FB0101900020E9F7AD
:1004D0003197AF01461B570BDC01ED91FC91028077
:1004E000F381E02D099480E090E00895DC01ED9126
:1004F000FC910190F081E02D09940F931F93CF930D
:10050000DF93EC016DE00E9476028C016AE0CE017F
:100510000E947602800F911FDF91CF911F910F9162
:1005200008958F929F92AF92BF92CF92DF92EF92F7
:10053000FF920F931F93CF93DF93CDB7DEB7A197B1
:100540000FB6F894DEBF0FBECDBF6C01142FE52FA0
:10055000CB01022F19A2223008F40AE07E0121E229
:10056000E20EF11C802E912CA12CB12C612F7E2F3C
:10057000A50194010E941F05029F1019112481E01A
:10058000E81AF1081A3014F4105D01C0195CF70183
:100590001083122FE32FCA01232B242B252B31F795
:1005A000B701C6010E946102A1960FB6F894DEBFA2
:1005B0000FBECDBFDF91CF911F910F91FF90EF90B4
:1005C000DF90CF90BF90AF909F908F900895CF9283
:1005D000DF92EF92FF920F931F93CF93DF9321153A
:1005E000310581F4DC01ED91FC910190F081E02D69
:1005F000642FDF91CF911F910F91FF90EF90DF90CB
:10060000CF9009942A30310501F577FF1DC06A01AA
:100610007B01EC016DE20E9476028C014427552794
:10062000BA014C195D096E097F092AE0CE010E94CA
:100630009102800F911FDF91CF911F910F91FF9039
:10064000EF90DF90CF9008952AE0DF91CF911F9136
:100650000F91FF90EF90DF90CF900C9491029A0150
:10066000AB01770F660B770B0C94E7020F931F9388
:10067000CF93DF93EC010E942F038C01CE010E94E7
:100680007D02800F911FDF91CF911F910F910895EF
:10069000FC0124853585F901E05CFF4F8081918163
:1006A000329620813181821B930B8F739927089595
:1006B000DC011C96ED91FC911D97DF01A05CBF4F02
:1006C0002D913C91119712968D919C91119728171D
:1006D000390739F08D919C91E80FF91F808190E0E6
:1006E00008958FEF9FEF0895FC01A485B585FD0166
:1006F000E05CFF4F20813181329680819181281703
:10070000390779F080819181A80FB91F8C912081E0
:1007100031812F5F3F4F2F7333273183208390E048
:1007200008958FEF9FEF0895FC0181A1882329F0A0
:10073000A489B5898C9186FFFBCF11A208950F93F0
:100740001F93CF93DF93FC01A685B7858D01005CD5
:100750001F4FE8018881998101968F739927AD0118
:100760004E5B5F4FEA012881398128173907D1F3A1
:10077000E80128813981A20FB31F6C93A685B78544
:10078000A05CBF4F11969C938E93A689B7892C913C
:1007900081E090E0078C02C0880F991F0A94E2F76D
:1007A000822B8C9381E081A30488F589E02D8081E0
:1007B0008064808381E090E0DF91CF911F910F9161
:1007C000089508951F920F920FB60F9211242F9340
:1007D0004F935F938F939F93EF93FF938091C0000C
:1007E00082FD1CC02091C6008091C1019091C20180
:1007F0004091C3015091C40101968F739927481706
:10080000590771F0E091C101F091C201EF57FE4F1D
:1008100020839093C2018093C10102C08091C600E1
:10082000FF91EF919F918F915F914F912F910F9039
:100830000FBE0F901F9018958BE191E00E94480326
:10084000892B11F00C94E10308951F920F920FB6BB
:100850000F9211242F933F938F939F93EF93FF93C6
:1008600020917D0130917E0180917F0190918001E6
:100870002817390731F48091C1008F7D8093C10022
:1008800014C0E0917F01F0918001E35CFE4F208174
:1008900080917F019091800101968F7399279093A9
:1008A000800180937F012093C600FF91EF919F917B
:1008B0008F913F912F910F900FBE0F901F90189521
:1008C000CF92DF92EF92FF92CF93DF93EC016A0118
:1008D0007B014115514E6105710509F1EC89FD89D6
:1008E00081E090E008A002C0880F991F0A94E2F707
:1008F000808360E079E08DE390E0A70196010E949B
:100900001F05DA01C9010197A109B109B695A7959B
:10091000979587959C01211580E13807A8F0EC890F
:10092000FD89108260E874E88EE190E0A7019601ED
:100930000E941F05DA01C9010197A109B109B69505
:10094000A795979587959C01E889F9893083EA896D
:10095000FB89208319A2EE89FF89408181E090E024
:100960009C010C8C02C0220F331F0A94E2F7242B47
:100970002083EE89FF8940819C010D8C02C0220FEB
:10098000331F0A94E2F7242B2083EE89FF894081EC
:100990009C010E8C02C0220F331F0A94E2F7242B15
:1009A0002083EE89FF8920810F8C02C0880F991F58
:1009B0000A94E2F7809582238083DF91CF91FF90A4
:1009C000EF90DF90CF900895EBE1F1E01382128277
:1009D00088EE93E0A0E0B0E084839583A683B7839C
:1009E00085E091E09183808381E891E09587848719
:1009F0008DE391E09787868785EC90E0918B808BE3
:100A000084EC90E0938B828B80EC90E0958B848BD0
:100A100081EC90E0978B868B82EC90E0918F808FB9
:100A200086EC90E0938F828F84E0848F83E0858FC3
:100A300087E0868F85E0878F81E080A30895A1E21B
:100A40001A2EAA1BBB1BFD010DC0AA1FBB1FEE1F48
:100A5000FF1FA217B307E407F50720F0A21BB30B93
:100A6000E40BF50B661F771F881F991F1A9469F70F
:100A700060957095809590959B01AC01BD01CF016B
:100A80000895EE0FFF1F0590F491E02D0994F8945E
:020A9000FFCF96
:100A920001000000009F03390248037403580394C5
:020AA20003004F
:00000001FF
