:100000000C945C000C9479000C9479000C947900A9
:100010000C9479000C9479000C9479000C9479007C
:100020000C9479000C9479000C9479000C9479006C
:100030000C9479000C9479000C9479000C9479005C
:100040000C94BA000C9479000C9479000C9479000B
:100050000C9479000C9479000C9479000C9479003C
:100060000C9479000C947900000000070002010054
:100070000003040600000000000000000102040864
:100080001020408001020408102001020408102002
:10009000040404040404040402020202020203032E
:1000A0000303030300000000250028002B000000CC
:1000B0000000240027002A0011241FBECFEFD8E043
:1000C000DEBFCDBF11E0A0E0B1E0E4E9F4E002C0A2
:1000D00005900D92A630B107D9F721E0A6E0B1E076
:1000E00001C01D92AF30B207E1F70E943B020C94B1
:1000F00048020C940000CF93DF93C0910201D0918D
:100100000301809100019091010161E08C179D072E
:100110004CF08C2F0E94B30160E08C2F0E94EF0105
:100120002196EFCF87E0DF91CF910C94B301CF926E
:10013000DF92EF92FF9283E00E941E026C0161E069
:1001400087E00E94EF0184E1C80ED11C0D2C000C49
:10015000EE08FF08C701B6010E94290160E087E0B0
:100160000E94EF01C701B601FF90EF90DF90CF90A2
:100170000C9429011F920F920FB60F9211242F9306
:100180003F938F939F93AF93BF938091070190917B
:100190000801A0910901B0910A013091060123E004
:1001A000230F2D3720F40196A11DB11D05C026E8AF
:1001B000230F0296A11DB11D209306018093070114
:1001C00090930801A0930901B0930A0180910B015B
:1001D00090910C01A0910D01B0910E010196A11D0D
:1001E000B11D80930B0190930C01A0930D01B0936E
:1001F0000E01BF91AF919F918F913F912F910F90E1
:100200000FBE0F901F9018953FB7F89480910B0187
:1002100090910C01A0910D01B0910E0126B5A89B03
:1002200005C02F3F19F00196A11DB11D3FBFBA2F88
:10023000A92F982F8827820F911DA11DB11DBC01E8
:10024000CD0142E0660F771F881F991F4A95D1F7AD
:100250000895CF92DF92EF92FF92CF93DF936B01DD
:100260007C010E940401EB01C114D104E104F104FA
:1002700079F00E9404016C1B7D0B683E7340A0F373
:1002800081E0C81AD108E108F108C851DC4FECCF71
:10029000DF91CF91FF90EF90DF90CF900895789409
:1002A00084B5826084BD84B5816084BD85B582607B
:1002B00085BD85B5816085BDEEE6F0E08081816019
:1002C0008083E1E8F0E01082808182608083808119
:1002D00081608083E0E8F0E0808181608083E1EBF1
:1002E000F0E0808184608083E0EBF0E080818160D9
:1002F0008083EAE7F0E0808184608083808182608F
:100300008083808181608083808180688083109277
:10031000C1000895833081F028F4813099F0823053
:10032000A1F008958630A9F08730B9F08430D1F477
:10033000809180008F7D03C0809180008F778093B3
:100340008000089584B58F7702C084B58F7D84BD09
:1003500008958091B0008F7703C08091B0008F7DA9
:100360008093B0000895CF93DF9390E0FC01E458B0
:10037000FF4F2491FC01E057FF4F8491882361F1E6
:1003800090E0880F991FFC01E255FF4FC591D49171
:10039000FC01EC55FF4FA591B491611109C09FB7C5
:1003A000F8948881209582238883EC912E230BC0BA
:1003B000623061F49FB7F8948881322F309583239F
:1003C0008883EC912E2B2C939FBF06C08FB7F89497
:1003D000E8812E2B28838FBFDF91CF9108951F9343
:1003E000CF93DF93282F30E0F901E859FF4F849134
:1003F000F901E458FF4FD491F901E057FF4FC49140
:10040000CC23C1F0162F81110E948A01EC2FF0E05D
:10041000EE0FFF1FEC55FF4FA591B4919FB7F894D5
:10042000111104C08C91D095D82302C0EC91DE2B21
:10043000DC939FBFDF91CF911F9108958E3008F01C
:100440008E502091040190E4299F9001112487701F
:10045000822B80937C0080917A00806480937A0064
:1004600080917A0086FDFCCF809178002091790000
:1004700090E0922B08950E944F010E947B00C0E003
:10048000D0E00E9497002097E1F30E940000F9CF8E
:04049000F894FFCF0E
:0604940007000700010053
:00000001FF
